:020000040800F2
:10000000D80400204501000865100008C50E00084E
:1000100061100008B90100082D1D00080000000053
:10002000000000000000000000000000491200086D
:10003000310C000800000000ED1000083513000826
:100040005F0100085F0100085F0100085F01000810
:100050005F0100085F0100085F0100085F01000800
:100060005F0100085F0100085F0100085F010008F0
:100070005F0100085F0100085F0100085F010008E0
:100080005F0100085F0100085F010008E91A00082D
:100090000D1B00085F0100085F0100085F010008F8
:1000A0005F0100085F0100085F0100085F010008B0
:1000B0005F010008991300085F0100085F01000854
:1000C0005F0100085F0100085F0100085F01000890
:1000D0005F0100085F0100085F0100088517000844
:1000E0005F0100085F0100085F0100085F01000870
:1000F0005F0100085F0100085F0100085F01000860
:100100005F0100085F010008591500085F01000841
:100110005F0100085F0100085F0100085F0100083F
:100120005F0100085F0100085F0100085F0100082F
:10013000DFF80CD000F02EF800480047991F0008A7
:10014000D80400200648804706480047FEE7FEE73F
:10015000FEE7FEE7FEE7FEE7FEE7FEE7FEE7FEE777
:10016000391300083101000830B50B460146002064
:100170002022012409E021FA02F59D4205D303FA69
:1001800002F5491B04FA02F52844151EA2F10102EA
:10019000F1DC30BD064C074D06E0E06840F001039D
:1001A00094E8070098471034AC42F6D3FFF7C4FF39
:1001B000EC2400080C25000800BFFEE700B589B05C
:1001C0000121480600F094FF0121092000F0B0FF52
:1001D00001214FF4EA1000F001FE4FF48070ADF8F9
:1001E000040048208DF8070003208DF8060001A9BF
:1001F0003A4800F067FD4FF40070ADF80400182095
:100200008DF8070003208DF8060001A9334800F09F
:1002100059FD13208DF8000001208DF80100002009
:100220008DF8020001208DF80300684600F01CFFE5
:1002300014208DF8000000208DF801008DF80200D8
:1002400001208DF80300684600F00EFF244800F0FE
:100250009DF800208DF81E008DF81F008DF82000FD
:100260008DF821008DF8220001208DF82300002058
:100270008DF81A008DF81B0004208DF81C00022058
:100280008DF81D000420ADF8180006A9144800F0F0
:10029000C4F900208DF812008DF8130001208DF8AC
:1002A00014000020ADF80800ADF80A00ADF80C000D
:1002B000ADF80E00ADF8100001208DF8150002A871
:1002C00000F08EF801220221054800F09DF901227C
:1002D0001146034800F098F909B000BD000C014038
:1002E00000640040B1F5007F3AD00FDC202928D00F
:1002F00006DC01291CD004291DD0082940D11DE0AD
:10030000402921D0B1F5807F3AD126E0B1F5004FE8
:1003100031D006DCB1F5806F25D0B1F5006F2FD15B
:1003200024E0B1F5803F12D0B1F5003F28D111E0B3
:10033000154A826025E00822C26022E01022C260D5
:100340001FE0082202611CE01022026119E008226D
:10035000426016E01022426013E00422426010E086
:10036000042242600DE0042242600AE00022826121
:100370000422426005E0002282610422426000E023
:1003800000BF00BF704700000101010010B5044626
:100390000B48844209D10121480600F0B9FE002132
:1003A0004FF0007000F0B4FE08E00121880600F074
:1003B000AFFE00214FF0806000F0AAFE10BD0000EB
:1003C0000064004010B5002106E0092200BF131EA2
:1003D000A2F10102FBD1491C8142F6D310BD0000FD
:1003E00010B50021837A012202FA03F13D4A126816
:1003F00042F001023B4B1A603A4A1C3212688A43AF
:10040000384B1C331A60027BCAB9364A0C32126868
:100410008A43344B0C331A604288C38842EA034350
:10042000304A4032847A42F834300288838842EA83
:1004300003432C4A4032847A02EBC4025360027BAD
:10044000012A19D1274A0C3212680A43254B0C3372
:100450001A604288038842EA0343224A4032847A7F
:1004600042F83430C288838842EA03431D4A40324E
:10047000847A02EBC4025360C27A3AB9194A121D57
:1004800012688A43174B1B1D1A6006E0154A121D9D
:1004900012680A43134B1B1D1A60028932B9114AB4
:1004A000143212688A430F4B14331A600289012AEE
:1004B00006D10C4A143212680A430A4B14331A60EC
:1004C000427B012A06D1074A1C3212680A43054BB7
:1004D0001C331A60034A126822F00102014B1A60B1
:1004E00010BD00000066004070B504460D460026B1
:1004F00060692840002871D0B5F5807F5CD010DCA1
:10050000082D35D006DC012D20D0022D24D0042D5D
:1005100072D127E0102D31D0202D35D0402D6BD158
:1005200038E0B5F5004F60D009DCB5F5007F49D063
:10053000B5F5806F4CD0B5F5006F5DD14FE0B5F5E6
:10054000803F2DD0B5F5003F56D12FE0A0682D4952
:1005500000F065FB064651E0E068032100F05FFB18
:1005600006464BE0E068082100F059FB064645E0EE
:10057000E068102100F053FB06463FE020690321AC
:1005800000F04DFB064639E02069082100F047FBEA
:10059000064633E02069102100F041FB06462DE0BD
:1005A0006068082100F03BFB064627E060681021E8
:1005B00000F035FB064621E0A069012100F02FFB89
:1005C00006461BE0A069022100F029FB064615E063
:1005D000A069042100F023FB06460FE00FE0A069AC
:1005E000702100F01CFB064608E06068042100F062
:1005F00016FB064602E0FFE7002600BF00E00026EB
:10060000304670BD010101001AB143690B434361DB
:1006100002E043698B434361704730B502460020D6
:100620000023146824F002041460146844F00104E8
:10063000146000E05B1C546804F001041CB94FF620
:10064000FF74A342F6D1546804F001040CB90020F1
:100650006CE08C79012C04D1146844F0800414609F
:1006600003E0146824F080041460CC79012C04D1D8
:10067000146844F04004146003E0146824F040045B
:1006800014600C7A012C04D1146844F02004146026
:1006900003E0146824F0200414604C7A012C04D187
:1006A000146844F01004146003E0146824F010048B
:1006B00014608C7A012C04D1146844F0080414608E
:1006C00003E0146824F008041460CC7A012C04D1EF
:1006D000146844F00404146003E0146824F0040473
:1006E00014608C78A407CD7844EA05640D7944EA57
:1006F00005444D7944EA05540D886D1E2C43D461A0
:10070000146824F001041460002300E05B1C5468AA
:1007100004F001041CB14FF6FF74A342F6D15468F3
:1007200004F001040CB1002000E0012030BD10B540
:1007300000F5D87303EB01131B6803F00403137275
:10074000137A53B900F5D87303EB01131B6840F219
:10075000FF7404EA5353136009E000F5D87303EB08
:1007600001131B686FF0604404EAD303536000F583
:10077000D87303EB01131B6803F00203537200F5F7
:10078000D87303EB01135B6803F00F03937200F55A
:10079000D87303EB01135B681B0AD37400F5D8739D
:1007A00003EB01139B68D37200F5D87303EB0113BD
:1007B0009B681C0A147300F5D87303EB01139B6844
:1007C0001C0C547300F5D87303EB01139B681B0ECC
:1007D000937300F5D87303EB0113DB68D37300F553
:1007E000D87303EB0113DB681C0A147400F5D8738B
:1007F00003EB0113DB681C0C547400F5D87303EB96
:100800000113DB681B0E937421B9C36843F0200306
:10081000C36003E0036943F02003036110BD0000DF
:100820002DE9F04186B004460D46174698460A2643
:1008300000208DF80C008DF80D0008208DF80E00BA
:10084000072C06DC0F2D04DC46EA042646EA0516D2
:1008500002E006B0BDE8F08101968DF80F708DF8CA
:10086000108055218DF811108DF812108DF813108D
:100870008DF814108DF815108DF8161000200F4902
:10088000087001A90E4800F037F900200D490860F2
:100890000CE00120FFF796FD0A480068401C09495A
:1008A000086008460068642800D903E0034800781F
:1008B0000028EED000BF00BFCBE700007000002092
:1008C000006400406C000020F0B585B004460D4681
:1008D0001746012600208DF808008DF80900082031
:1008E0008DF80A00072C06DC0F2D04DC46EA0426EE
:1008F00046EA051601E005B0F0BD00968DF80B70D4
:1009000055218DF80C108DF80D108DF80E108DF806
:100910000F108DF810108DF811108DF812100020A6
:100920000E49087069460E4800F0E6F800200D49AF
:1009300008600CE00120FFF745FD0A480068401CF4
:100940000849086008460068642800D903E00348A5
:1009500000780028EED000BF00BFCCE77000002078
:10096000006400406C00002070B586B004460D465F
:10097000002600208DF80C008DF80D0008208DF861
:100980000E00072C06DC0F2D04DC46EA042646EA9E
:10099000051601E006B070BD019655208DF80F00D8
:1009A00055218DF810108DF811108DF812108DF85A
:1009B00013108DF814108DF815108DF816100020F6
:1009C0000E49087001A90E4800F096F800200D4964
:1009D00008600CE00120FFF7F5FC0A480068401CA5
:1009E0000849086008460068642800D903E0034805
:1009F00000780028EED000BF00BFCBE770000020D9
:100A0000006400406C0000202DE9F04385B0804672
:100A10000F4614461D460C9E4FF0060900208DF827
:100A200008008DF8090008208DF80A00B8F1070FBA
:100A300006DC0F2F04DC49EA082949EA071902E01D
:100A400005B0BDE8F083CDF8009041F288308442D3
:100A500001DD044603E02448844200DA0446002C09
:100A600004DA01DD204600E0604204B2002D04DA21
:100A700001DD284600E0684205B2200A8DF80B002F
:100A8000E1B28DF80C10290A8DF80D10E9B28DF83D
:100A90000E10310E8DF80F10310C8DF81010310A38
:100AA0008DF81110F1B28DF8121000200F49087066
:100AB00069460F4800F020F800200E4908600CE05D
:100AC0000120FFF77FFC0B480068401C09490860C3
:100AD00008460068642800D903E00448007800282C
:100AE000EED000BF00BFABE778ECFFFF7000002046
:100AF000006400406C00002010B50246002093689E
:100B000003F08063B3F1806F00D110E0936803F0CD
:100B10000063B3F1006F01D1012008E0936803F096
:100B20008053B3F1805F01D1022000E0042004284B
:100B300074D002F5C07303EB00131B6803F00104CB
:100B400002F5C07303EB00131C600B7A7BB94B7A80
:100B50000C8843EA445302F5C07404EB0014246883
:100B6000234302F5C07404EB0014236010E00B7AF9
:100B70004C6843EAC4034C7A234302F5C07404EB87
:100B800000142468234302F5C07404EB00142360AE
:100B90008B7A03F00F038B7202F5C07303EB001323
:100BA0005B6823F00F0402F5C07303EB00135C6075
:100BB00002F5C07303EB00135B688C7A234302F5E4
:100BC000C07404EB001463608B7B1C064B7B44EA0F
:100BD00003440B7B44EA0323CC7A234302F5C0741D
:100BE00004EB0014A3608B7C1C064B7C44EA03449A
:100BF0000B7C44EA0323CC7B234302F5C07404EB53
:100C00000014E36002F5C07303EB00131B6843F0AC
:100C1000010402F5C07303EB00131C6010BD024613
:100C2000002002EA01030BB1012000E00020704720
:100C30007047000008B54FF47040ADF80000032085
:100C40008DF8020010208DF803006946194800F065
:100C500039F80020ADF80000C020ADF8000069466A
:100C6000154800F02FF80020ADF800004FF40050B8
:100C7000ADF800006946114800F024F80020ADF8F6
:100C80000000F020ADF8000048208DF80300694610
:100C90000B4800F017F80020ADF800004FF40140B9
:100CA000ADF8000048208DF803006946034800F0C5
:100CB00009F808BD000C014000100140002001406F
:100CC000000801402DE9F0410246002500260020E1
:100CD00000230024002791F803C00CF00F0591F8C1
:100CE00003C00CF0100CBCF1000F03D091F802C04F
:100CF0004CEA050591F800C0BCF1000F31D0146832
:100D000000202BE04FF0010C0CFA00F3B1F800C00A
:100D10000CEA03069E4220D183004FF00F0C0CFA20
:100D200003F7BC4305FA03FC4CEA040491F803C042
:100D3000BCF1280F06D14FF0010C0CFA00FCC2F8F0
:100D400014C00AE091F803C0BCF1480F05D14FF080
:100D5000010C0CFA00FCC2F810C0401C0828D1D3CA
:100D60001460B1F800C0BCF1FF0F34DD54680020FE
:100D70002EE000F1080C4FF0010808FA0CF3B1F86E
:100D800000C00CEA03069E4221D183004FF00F0CF5
:100D90000CFA03F7BC4305FA03FC4CEA040491F88F
:100DA00003C0BCF1280F05D100F1080C08FA0CF8BB
:100DB000C2F8148091F803C0BCF1480F07D100F1CC
:100DC000080C4FF0010808FA0CF8C2F81080401C1B
:100DD0000828CED35460BDE8F0810000F0B50A4683
:100DE000002300240021002500F00046B6F1004F4A
:100DF00002D11D4EF16901E01B4E7168C0F303453D
:100E000083B200F44016B6F5401F08D121F070619E
:100E1000154E766826F07066134F7E6012E000F47F
:100E20008016B6F5801F06D1032606FA05F4A14305
:100E300041F0706106E0460D360103FA06F6B14353
:100E400041F0706122B1460D360103FA06F63143D6
:100E500000F00046B6F1004F02D1034EF16101E00F
:100E6000014E7160F0BD000000000140024600200C
:100E700093680B400BB1012000E0002070474161F6
:100E8000704701617047000010B50446072C04DD6F
:100E900007A000F04DFF002010BD0948807A012115
:100EA000A140084008B10120F6E70020F4E7000067
:100EB0004765745F494F5F4572726F7200000000B2
:100EC000C800002000BFFEE7F8B53A4800684FF4BC
:100ED0007A4190FBF1F201FB12063748006890FB63
:100EE000F1F201FB12043548006890FBF1F201FBBE
:100EF0001205B4F5FA4F05DA2F480068001B2E4999
:100F0000086006E0C4F57A402B49096808442A497C
:100F10000860B5F5FA4F05DA28480068401B2749F4
:100F2000086006E0C5F57A40244909680844234969
:100F3000086020480068801B1E4908600846006859
:100F4000002805DB0846006800F5FA40086005E067
:100F500018480068A0F5FA4016490860154800686E
:100F60004FF4C87300901648B0F90020012100200A
:100F7000FFF74AFD1048006840424FF4C8730090E4
:100F80000F48B0F9002002210020FFF73DFD0B487B
:100F900000684FF4C87300900948B0F9002003219D
:100FA0000020FFF731FD012000F08CFF00200549F3
:100FB0000880F8BD3C0000204000002044000020D4
:100FC000000000205000002008B5FFF77DFF1F48FB
:100FD0000068A0F5FA501D4908601D48006800F53A
:100FE0007A501B4908601B480068A0F57A501949DF
:100FF0000860164800684FF4C87300901648B0F9AE
:10100000002001210020FFF7FFFC1148006840424A
:101010004FF4C87300901048B0F90020022100205E
:10102000FFF7F2FC0B4800684FF4C87300900A48C1
:10103000B0F9002003210020FFF7E6FC012000F0BA
:1010400041FF00200549088008BD00003C00002049
:10105000400000204400002000000020500000203C
:1010600000BFFEE77047000070B5002100230F228B
:10107000C47804B3154C246804F4E064C4F5E06457
:10108000210AC1F10403CA40447804FA03F18478C8
:101090001440214309010E4C0678A155047804F050
:1010A0001F050124AC4005786D11AD0005F1E02568
:1010B000C5F8004109E0047804F01F050124AC40A4
:1010C000044D0678761145F8264070BD0CED00E021
:1010D00000E400E080E100E002490143024A1160BF
:1010E000704700000000FA050CED00E070470000BA
:1010F00029B1064AD2690243044BDA6104E0034A8B
:10110000D2698243014BDA6170470000001002404F
:1011100029B1064A12690243044B1A6104E0034AEA
:1011200012698243014B1A617047000000100240AF
:1011300029B1064A92690243044B9A6104E0034ACA
:1011400092698243014B9A6170470000001002408F
:1011500010B501210420FFF7EBFF01210820FFF764
:10116000E7FF01211020FFF7E3FF01210802FFF74D
:10117000DFFF10BD30B500210022002400232D4DDB
:101180006D6805F00C0121B1042905D0082923D18F
:1011900005E0294D056022E0274D05601FE0254D43
:1011A0006D6805F47012234D6D6805F480340225D6
:1011B00005EB92421CB9214D554305600BE01D4DD6
:1011C0006D6805F400351DB11C4D5543056002E006
:1011D000194D5543056002E0174D056000BF00BF83
:1011E000144D6D6805F0F0010909154D6B5C05683B
:1011F000DD4045600F4D6D6805F4E061090A104D52
:101200006B5C4568DD4085600A4D6D6805F4605192
:10121000C90A0B4D6B5C4568DD40C560054D6D68C6
:1012200005F44041890B074D6B5CC568B5FBF3F5D0
:10123000056130BD0010024000127A0000093D0037
:1012400093000020A3000020704710B500F002F8C2
:1012500010BD00000CB500200190009033480068DC
:1012600040F480303149086000BF3048006800F425
:10127000003000900198401C0190009818B9019826
:10128000B0F5A06FF1D12948006800F4003010B12A
:101290000120009001E0002000900098012843D137
:1012A0002348006840F010002149086008460068A3
:1012B00020F0030008600846006840F00200086063
:1012C0001A4840681949486008464068486008461E
:1012D000406840F4806048600846406820F47C1014
:1012E00048600846406840F4E810486008460068D6
:1012F00040F08070086000BF0C48006800F000708B
:101300000028F9D00948406820F0030007494860E8
:101310000846406840F00200486000BF034840684B
:1013200000F00C000828F9D10CBD000000100240AC
:10133000002002407047000010B51348006840F0DC
:1013400001001149086008464068104908400E49EC
:101350004860084600680E4908400B490860084686
:10136000006820F4802008600846406820F4FE00F1
:1013700048604FF41F008860FFF767FF4FF0006080
:101380000449086010BD0000001002400000FFF892
:10139000FFFFF6FE08ED00E008B50121624800F00D
:1013A00052F900287ED001215F4800F03DF95F48E6
:1013B0000078012876D15E48007800287BD05C4810
:1013C0000078012821D15B48007848B9FFF77CFDFF
:1013D0000120584908700020574908705749087083
:1013E0005748B0F90000C82865DB564800686430EB
:1013F00054490860544800686430534908605348B1
:10140000006864305149086055E049480078022876
:1014100051D047480078032809D1FFF755FD002037
:1014200044490870444908704449087043E0404802
:10143000007804281DD14048007850B9FFF7C4FD5A
:1014400000203C49087001203B49087000203B49BE
:1014500008703B48B0F90000C8282CDB3A48006807
:101460006430394908603948006864383749086091
:1014700021E02F48007805281DD13048007848B970
:10148000FFF7A2FD00202B4908702B4908700120AE
:101490002A4908702A48B0F90000C8280BDB2A48FE
:1014A000006800E03FE0643827490860274800688A
:1014B0006430264908602248B0F90000C82827DBBC
:1014C0002048006800902248B0F900302148B0F967
:1014D000002001210020FFF797FA1B4800684042D6
:1014E00000901B48B0F900301A48B0F900200221E2
:1014F0000020FFF789FA1548006800901448B0F9F9
:1015000000301448B0F9002003210020FFF77CFAD6
:101510000B48B0F90000C82805DC09480088401CC9
:1015200000B20749088008BD000400400200002006
:1015300048000020490000204A0000204B00002005
:10154000500000203C00002040000020440000200B
:101550004E0000200000002010B501212C4800F0B2
:1015600072F8002853D00121294800F05DF829487D
:10157000007801284BD128480078002847D0274818
:101580000068B0F57A6F1FDC0320FFF77DFCD8B14F
:1015900080212348FFF775FC2248007838B94021A4
:1015A0001F48FFF76EFC01201E4908702FE0402104
:1015B0001B48FFF764FC19480068401C1749086085
:1015C00000201849087022E01448006801281EDB3A
:1015D0000320FFF759FCD0B980211148FFF74FFCD9
:1015E0001048007838B940210D48FFF74AFC012027
:1015F0000C4908700BE040210948FFF740FC074800
:101600000068401E0549086000200649087010BDAA
:10161000000C004002000020920000201C0000206E
:101620000010014018000020CA430282704721B117
:10163000028842F00102028004E002884FF6FE7345
:101640001A400280704730B5024600200023002473
:10165000158A05EA0103958905EA010413B10CB165
:10166000012000E0002030BD1AB183890B43838143
:1016700002E083898B438381704700000022028847
:101680001D4B98420ED01D4B98420BD0B0F1804FAD
:1016900008D01B4B984205D01A4B984202D01A4BE7
:1016A000984204D14FF68F731A404B881A43174B58
:1016B000984207D0164B984204D04FF6FF431A4089
:1016C000CB881A4302808B8883850B8803850A4B5D
:1016D00098420BD0094B984208D00E4B984205D047
:1016E0000D4B984202D00D4B984201D10B7A0386E4
:1016F0000123838270470000002C01400034014028
:101700000004004000080040000C004000100040B1
:1017100000140040004001400044014000480140E6
:101720001FB5044601210220FFF7E2FC601E80B2D3
:10173000ADF8080041F61F40ADF804000020ADF8F8
:101740000A00ADF8060001A90D48FFF797FF012236
:1017500041210B48FFF788FF1D208DF80000002075
:101760008DF8010004208DF8020001208DF803009F
:101770006846FFF779FC01210148FFF758FF1FBDBC
:101780000004004010B540F225516B4800F00CF900
:1017900000287DD040F22551674800F0DDF866480A
:1017A00000F098F96549664A1278885464480078D0
:1017B000401C634908706348007808B362480078A9
:1017C000F0B108460078401E5C49085CED2808D15D
:1017D0005B480078401E0F2803D101205B49087048
:1017E00035E057480078401E0F2830DD002057496B
:1017F000087055490870534908705149087026E02F
:101800004F480078401E4D49085CFA2806D14D48E3
:10181000007818B901204B49087018E04848007852
:10182000401E4649085CAF280AD146480078012886
:1018300006D14548007818B901204349087006E0F0
:101840000020414908703F4908703D4908703F48F1
:10185000007801286ED10020394908703B49087092
:101860003949087037490870344880783849C88049
:1018700008468079000200B2C8800846B0F9060028
:101880002E49C97808433249C8802C48007900E0C5
:1018900050E0488008468078000200B24880084640
:1018A000B0F902002549497908432949488023486D
:1018B0008079888008460079000200B28880084656
:1018C000B0F904001D49C9790843214988801B48A3
:1018D000007A088008460078000200B208800846B6
:1018E000B0F900001549497A08431949088013489E
:1018F000C07A08810846007A000200B208810846D2
:10190000B0F908000D49097B0843114908810B48CB
:10191000407B48810846807A000200B24881084630
:10192000B0F90A000549897B08430949488101202B
:101930000849087010BD000000480040C8000020A1
:101940008E0000208F0000209000002091000020D9
:10195000BC0000209200002010B50022002340F6B9
:101960006A14A14200D100BF0A1201249440A3B21C
:10197000DC43048010BD21B1828942F4005282818F
:1019800004E082894DF6FF731A4082817047024657
:101990000020B1F5007F00D100BF13880B400BB1D0
:1019A000012000E00020704770B5024600240023AB
:1019B0000025002040F66A16B14200D100BFC1F3F5
:1019C000421501F01F03012606FA03F3012D02D18F
:1019D0009689334006E0022D02D1168A334001E099
:1019E000968A33400C12012606FA04F41688344015
:1019F00013B10CB1012000E0002070BD2DE9F047CB
:101A000086B005460E460024A24600BFA146002728
:101A1000B08900B100BF2F462C8A4CF6FF700440FD
:101A2000F08804432C82AC894EF6F3100440B08851
:101A300031890843718908430443AC81AC8A4FF66D
:101A4000FF400440B0890443AC8201A8FFF792FB39
:101A50001F48874202D1DDF810A001E0DDF80CA09C
:101A6000A88900F4004040B10AEBCA0000EB0A105C
:101A700031684900B0FBF1F807E00AEBCA0000EB5F
:101A80000A1031688900B0FBF1F86420B8FBF0F06F
:101A900004012009642101FB1089A88900F4004099
:101AA00040B1322000EBC900B0FBF1F000F00700BC
:101AB000044308E0322000EB09106421B0FBF1F090
:101AC00000F00F0004432C8106B0BDE8F087000051
:101AD0000038014001468888C0F308007047C1F310
:101AE000080282807047000010B501210548FEF70A
:101AF000FBFC30B101210348FEF7F4FB0120024951
:101B0000087010BD006400407000002000B585B072
:101B100002217F48FEF7E8FC002839D002217C48EA
:101B2000FEF7E0FB6A4600217948FEF700FE9DF8CB
:101B3000080000282CD19DF808000028FAD19DF853
:101B40000A000828F6D100981B2822D19DF80C0025
:101B50009DF80B1040EA012000B26E4908809DF804
:101B60000E109DF80D0041EA002000B26A4908807D
:101B70009DF80F0001069DF8100041EA00419DF814
:101B8000110041EA00209DF81210084363490860E3
:101B9000BCE000982B2822D19DF80C009DF80B107A
:101BA00040EA012000B25B4948809DF80E109DF884
:101BB0000D0041EA002000B2574948809DF80F000F
:101BC00001069DF8100041EA00419DF8110041EA2C
:101BD00000209DF8121008435049486096E0009894
:101BE0003B2822D19DF80C009DF80B1040EA012003
:101BF00000B2484988809DF80E109DF80D0041EA1A
:101C0000002000B2444988809DF80F0001069DF82D
:101C1000100041EA00419DF8110041EA00209DF8C2
:101C2000121008433D49886070E000984B2822D18B
:101C30009DF80C009DF80B1040EA012000B23549D8
:101C4000C8809DF80E109DF80D0041EA002000B2FA
:101C50003149C8809DF80F0001069DF8100041EA47
:101C600000419DF8110041EA00209DF81210084340
:101C70002A49C8604AE000981F2803D1012028495A
:101C8000087043E000982F2803D1012024494870B0
:101C90003CE000983F2803D101202149887035E0BD
:101CA00000984F2803D101201D49C8702EE00098EC
:101CB0001C2808D19DF80B001A4908709DF80C00EB
:101CC0001949087022E000982C2808D19DF80B00D3
:101CD000144948709DF80C001349487016E00098AC
:101CE0003C2808D19DF80B000E4988709DF80C0027
:101CF0000D4988700AE000984C2807D19DF80B0028
:101D00000849C8709DF80C000749C87005B000BDAF
:101D100000640040720000207A000020AC00002027
:101D200082000020860000208A00002000BFFEE71D
:101D30000FB4054B10B503A9044A029800F018F837
:101D400010BC5DF814FB0000651F0008A80000200F
:101D500002E008C8121F08C1002AFAD17047704774
:101D6000002001E001C1121F002AFBD170470000D2
:101D70002DE9FF4F89B09B460446002506E0252843
:101D80000BD05A460B999047641C6D1C2078002894
:101D9000F5D10DB02846BDE8F08F0027B8460122E6
:101DA000474900E0074314F8013F203B02FA03F0E3
:101DB0000842F7D120782E2819D114F8010F47F0E6
:101DC00004072A280ED06FF02F022078A0F13001EE
:101DD00009290CD808EB880102EB410100EB01084E
:101DE000641CF2E70A98641C50F8048B0A9020786F
:101DF0000028CED0642808D0692806D075281ED0C7
:101E00005A460B9990476D1C58E00A994FF00A0901
:101E100001C90A91002802DA40422D2102E0390569
:101E200004D52B218DF82010012103E0F90704D0FF
:101E30002021F7E78A4608AE0DE00021FAE70A996B
:101E40004FF00A0901C90A91F7E74946FEF78CF9F4
:101E5000303106F8011D0028F7D1ADEB060000F186
:101E60002009780701D44FF00108C84502DDA8EB2E
:101E7000090000E000208046002706E008A85A4636
:101E8000C05D0B9990476D1C7F1C5745F6DB04E045
:101E900030205A460B9990476D1CB8F10001A8F10B
:101EA0000108F5DC05E016F8010B5A460B9990473E
:101EB0006D1CB9F10001A9F10109F4DC641C65E7AE
:101EC0000928010070B5044624B9214608A0FFF78F
:101ED0002FFF70BD002507E042F63C0000BF011E49
:101EE000A0F10100FBD16D1CA542F5D300BFF0E7C6
:101EF00044656C6179204572726F72200D0A20442E
:101F0000656C617954696D65206973202564200DC5
:101F10000A00000070B5044624B9214608A0FFF766
:101F200007FF70BD002506E0092000BF011EA0F1DB
:101F30000100FBD16D1CA542F6D300BFF1E7000004
:101F400044656C6179204572726F72200D0A2044DD
:101F5000656C617954696D65206973202564200D75
:101F60000A00000070B504460D4600BF4021094834
:101F7000FFF70DFD0128F9D1E1B20648FFF7AFFDEB
:101F800000BF40210348FFF702FD0128F9D1204698
:101F900070BD00000038014008B5FFF7D9F84FF4D4
:101FA000A060FFF799F8FEF745FE00F061FA6420A3
:101FB000FFF7B6FBFEF702F94FF4FA70FFF782FF66
:101FC00000210846FEF7D0FC4FF4FA70FFF77AFFC5
:101FD0000023FA2201211846FEF722FCC820FFF751
:101FE00099FF0023FA2202211846FEF719FCC820A7
:101FF000FFF790FF0023FA2203211846FEF710FC9A
:10200000C820FFF787FF052200210846FEF75CFC89
:102010004FF4FA70FFF756FF0020FE4908604FF4B6
:10202000FA40FD490860FD490860FA4800684FF42D
:10203000C8730090FA48B0F9002001210020FEF793
:10204000E3FCF548006840424FF4C8730090F44840
:10205000B0F9002002210020FEF7D6FCEF4800680E
:102060004FF4C8730090EE48B0F90020032100201F
:10207000FEF7CAFC0120EB4908700020EA4908700D
:10208000EA490870EA4908700120EA490870EBE162
:10209000E94800680B2811D2DFE800F00611274953
:1020A0005F8197B9D2E9FE00DE48007830B903209D
:1020B000E2490870D7480068E14908601AE1012048
:1020C000DE490870D3480068DD490968401A4FF4BA
:1020D0007A4190FBF1F0092806DBD0480068D94925
:1020E00008600220D449086004E10420D349087044
:1020F000CA480068D3490968401AD34908600846AD
:102100000068002802DD0846006802E0CE4800684A
:1021100040424FF4FA4190FBF1F0042806DBBD4841
:102120000068C74908600320C3490860E2E0012055
:10213000C2490870B7480068C1490968401A4FF49D
:102140007A4190FBF1F0042806DBB4480068BD49F1
:1021500008600420B8490860CCE00420B749087042
:10216000AE480068B7490968401AB7490860084690
:102170000068002802DD0846006802E0B2480068F6
:1021800040424FF4FA4190FBF1F0042806DB0520B1
:10219000A94908609F480068A9490860AAE0012091
:1021A000A64908709B480068A5490968401A4FF481
:1021B0007A4190FBF1F0042806DB98480068A149B9
:1021C000086006209C49086094E005209B4908703F
:1021D000924800689B490968401A9B490860084674
:1021E0000068002802DD0846006802E096480068A2
:1021F00040424FF4FA4190FBF1F0082806DB07203B
:102200008D490860834800688D49086072E00120AC
:102210008A4908707F48006889490968401A4FF464
:102220007A4190FBF1F0092809DB7C480068854978
:10223000086000208049086001208449087059E046
:1022400001207E490870734800687D490968401A7A
:102250004FF47A4190FBF1F0022807DB6F480068E9
:10226000784908607A4800687349086042E00120B4
:10227000724908706748006871490968401A4FF44C
:102280007A4190FBF1F0092808DB644800686D4949
:1022900008600A20684900E001E008602AE00520A3
:1022A000664908705D48006866490968401A6649D1
:1022B000086008460068002802DD0846006802E061
:1022C0006148006840424FF4FA4190FBF1F0082861
:1022D0000FDB4FF400515F48FEF7D3FD4D48006817
:1022E000574908604FF47A70FFF7ECFD002052491F
:1022F000086000BF00BF10215748FEF7B7FD80B946
:102300000120FFF7DFFD10215348FEF7AFFD002845
:102310004DD1444908704D49087001204649086074
:1023200045E020214C48FEF7A1FD58B90120FFF7F8
:10233000C9FD20214848FEF799FDC0BB00203E4959
:10234000086034E040214448FEF790FDA8B9012020
:10235000FFF7B8FD40214048FEF788FD38BB2D4807
:10236000006837490860022039490860082032496E
:10237000086000203549087019E080213648FEF7D2
:1023800075FDA0B90120FFF79DFD80213248FEF7C1
:102390006DFD60B91F4800682949086004202C4978
:1023A00008600820244908600020284908704FF47C
:1023B00080712A48FEF75AFD90B924480078012818
:1023C0000ED1FFF77FFD4FF480712448FEF74EFDDC
:1023D00030B9104800681A49086009201649086099
:1023E0004FF400411D48FEF741FDC8BB0D48007881
:1023F000012839D14FF4FA70FFF764FD4FF4807172
:102400001648FEF733FD58BB0020064908700F49F7
:10241000087026E03C00002040000020440000201E
:10242000000000204C000020490000204A0000204D
:102430004B000020020000205C000020480000202B
:102440006000002054000020580000206800002098
:1024500064000020000C0140000801400020014001
:1024600002E001200149086012E600005C00002043
:1024700000B585B0012144F21400FEF759FE4FF477
:102480000070ADF8100018208DF8130003208DF8AF
:10249000120004A91348FEF715FC4FF48060ADF854
:1024A000100004208DF8130004A90E48FEF70AFC62
:1024B0004FF4E13000900020ADF80400ADF80600C4
:1024C000ADF80800ADF80C000C20ADF80A00694624
:1024D0000548FFF793FA01210348FFF74CFA05B0CE
:1024E00000BD000000080140003801400C25000834
:1024F00000000020AC000000501D0008B8250008B6
:10250000AC0000202C040000601D000888130000AF
:1025100000000000000000000000000000000000BB
:1025200000000000000000000000000000000000AB
:10253000000000000000000000000000000000009B
:10254000000019000400000000000000000000006E
:102550000000000000000000000058020000000021
:10256000000000000000000000000000000000006B
:10257000000000000000000000000000000000005B
:10258000000000000000000000000000000000004B
:10259000000000000000000000000000000000003B
:1025A00000000001020304010203040607080902F7
:0825B000040608000000000011
:0400000508000131BD
:00000001FF
