:020000040800F2
:100000000005002045010008A1100008C50E0008E9
:100010009D100008B9010008091F00080000000039
:100020000000000000000000000000008512000831
:10003000310C0008000000002911000871130008AD
:100040005F0100085F0100085F0100085F01000810
:100050005F0100085F0100085F0100085F01000800
:100060005F0100085F0100085F0100085F010008F0
:100070005F0100085F0100085F0100085F010008E0
:100080005F0100085F0100085F010008C51C00084F
:10009000E91C00085F0100085F0100085F0100081B
:1000A0005F0100085F0100085F0100085F010008B0
:1000B0005F010008D51300085F0100085F01000818
:1000C0005F0100085F0100085F0100085F01000890
:1000D0005F0100085F0100085F0100086119000866
:1000E0005F0100085F0100085F0100085F01000870
:1000F0005F0100085F0100085F0100085F01000860
:100100005F0100085F010008351700085F01000863
:100110005F0100085F0100085F0100085F0100083F
:100120005F0100085F0100085F0100085F0100082F
:10013000DFF80CD000F02EF80048004775210008C9
:10014000000500200648804706480047FEE7FEE716
:10015000FEE7FEE7FEE7FEE7FEE7FEE7FEE7FEE777
:10016000751300083101000830B50B460146002028
:100170002022012409E021FA02F59D4205D303FA69
:1001800002F5491B04FA02F52844151EA2F10102EA
:10019000F1DC30BD064C074D06E0E06840F001039D
:1001A00094E8070098471034AC42F6D3FFF7C4FF39
:1001B000002700082027000800BFFEE700B589B02F
:1001C0000121480600F0B2FF0121092000F0CEFF16
:1001D00001214FF4EA1000F001FE4FF48070ADF8F9
:1001E000040048208DF8070003208DF8060001A9BF
:1001F0003A4800F067FD4FF40070ADF80400182095
:100200008DF8070003208DF8060001A9334800F09F
:1002100059FD13208DF8000001208DF80100002009
:100220008DF8020001208DF80300684600F03AFFC7
:1002300014208DF8000000208DF801008DF80200D8
:1002400001208DF80300684600F02CFF244800F0E0
:100250009DF800208DF81E008DF81F008DF82000FD
:100260008DF821008DF8220001208DF82300002058
:100270008DF81A008DF81B0004208DF81C00022058
:100280008DF81D000420ADF8180006A9144800F0F0
:10029000C4F900208DF812008DF8130001208DF8AC
:1002A00014000020ADF80800ADF80A00ADF80C000D
:1002B000ADF80E00ADF8100001208DF8150002A871
:1002C00000F08EF801220221054800F09DF901227C
:1002D0001146034800F098F909B000BD000C014038
:1002E00000640040B1F5007F3AD00FDC202928D00F
:1002F00006DC01291CD004291DD0082940D11DE0AD
:10030000402921D0B1F5807F3AD126E0B1F5004FE8
:1003100031D006DCB1F5806F25D0B1F5006F2FD15B
:1003200024E0B1F5803F12D0B1F5003F28D111E0B3
:10033000154A826025E00822C26022E01022C260D5
:100340001FE0082202611CE01022026119E008226D
:10035000426016E01022426013E00422426010E086
:10036000042242600DE0042242600AE00022826121
:100370000422426005E0002282610422426000E023
:1003800000BF00BF704700000101010010B5044626
:100390000B48844209D10121480600F0D7FE002114
:1003A0004FF0007000F0D2FE08E00121880600F056
:1003B000CDFE00214FF0806000F0C8FE10BD0000AF
:1003C0000064004010B5002106E0092200BF131EA2
:1003D000A2F10102FBD1491C8142F6D310BD0000FD
:1003E00010B50021837A012202FA03F13D4A126816
:1003F00042F001023B4B1A603A4A1C3212688A43AF
:10040000384B1C331A60027BCAB9364A0C32126868
:100410008A43344B0C331A604288C38842EA034350
:10042000304A4032847A42F834300288838842EA83
:1004300003432C4A4032847A02EBC4025360027BAD
:10044000012A19D1274A0C3212680A43254B0C3372
:100450001A604288038842EA0343224A4032847A7F
:1004600042F83430C288838842EA03431D4A40324E
:10047000847A02EBC4025360C27A3AB9194A121D57
:1004800012688A43174B1B1D1A6006E0154A121D9D
:1004900012680A43134B1B1D1A60028932B9114AB4
:1004A000143212688A430F4B14331A600289012AEE
:1004B00006D10C4A143212680A430A4B14331A60EC
:1004C000427B012A06D1074A1C3212680A43054BB7
:1004D0001C331A60034A126822F00102014B1A60B1
:1004E00010BD00000066004070B504460D460026B1
:1004F00060692840002871D0B5F5807F5CD010DCA1
:10050000082D35D006DC012D20D0022D24D0042D5D
:1005100072D127E0102D31D0202D35D0402D6BD158
:1005200038E0B5F5004F60D009DCB5F5007F49D063
:10053000B5F5806F4CD0B5F5006F5DD14FE0B5F5E6
:10054000803F2DD0B5F5003F56D12FE0A0682D4952
:1005500000F065FB064651E0E068032100F05FFB18
:1005600006464BE0E068082100F059FB064645E0EE
:10057000E068102100F053FB06463FE020690321AC
:1005800000F04DFB064639E02069082100F047FBEA
:10059000064633E02069102100F041FB06462DE0BD
:1005A0006068082100F03BFB064627E060681021E8
:1005B00000F035FB064621E0A069012100F02FFB89
:1005C00006461BE0A069022100F029FB064615E063
:1005D000A069042100F023FB06460FE00FE0A069AC
:1005E000702100F01CFB064608E06068042100F062
:1005F00016FB064602E0FFE7002600BF00E00026EB
:10060000304670BD010101001AB143690B434361DB
:1006100002E043698B434361704730B502460020D6
:100620000023146824F002041460146844F00104E8
:10063000146000E05B1C546804F001041CB94FF620
:10064000FF74A342F6D1546804F001040CB90020F1
:100650006CE08C79012C04D1146844F0800414609F
:1006600003E0146824F080041460CC79012C04D1D8
:10067000146844F04004146003E0146824F040045B
:1006800014600C7A012C04D1146844F02004146026
:1006900003E0146824F0200414604C7A012C04D187
:1006A000146844F01004146003E0146824F010048B
:1006B00014608C7A012C04D1146844F0080414608E
:1006C00003E0146824F008041460CC7A012C04D1EF
:1006D000146844F00404146003E0146824F0040473
:1006E00014608C78A407CD7844EA05640D7944EA57
:1006F00005444D7944EA05540D886D1E2C43D461A0
:10070000146824F001041460002300E05B1C5468AA
:1007100004F001041CB14FF6FF74A342F6D15468F3
:1007200004F001040CB1002000E0012030BD10B540
:1007300000F5D87303EB01131B6803F00403137275
:10074000137A53B900F5D87303EB01131B6840F219
:10075000FF7404EA5353136009E000F5D87303EB08
:1007600001131B686FF0604404EAD303536000F583
:10077000D87303EB01131B6803F00203537200F5F7
:10078000D87303EB01135B6803F00F03937200F55A
:10079000D87303EB01135B681B0AD37400F5D8739D
:1007A00003EB01139B68D37200F5D87303EB0113BD
:1007B0009B681C0A147300F5D87303EB01139B6844
:1007C0001C0C547300F5D87303EB01139B681B0ECC
:1007D000937300F5D87303EB0113DB68D37300F553
:1007E000D87303EB0113DB681C0A147400F5D8738B
:1007F00003EB0113DB681C0C547400F5D87303EB96
:100800000113DB681B0E937421B9C36843F0200306
:10081000C36003E0036943F02003036110BD0000DF
:100820002DE9F04186B004460D46174698460A2643
:1008300000208DF80C008DF80D0008208DF80E00BA
:10084000072C06DC0F2D04DC46EA042646EA0516D2
:1008500002E006B0BDE8F08101968DF80F708DF8CA
:10086000108055218DF811108DF812108DF813108D
:100870008DF814108DF815108DF8161000200F4902
:10088000087001A90E4800F037F900200D490860F2
:100890000CE00120FFF796FD0A480068401C09495A
:1008A000086008460068642800D903E0034800781F
:1008B0000028EED000BF00BFCBE70000940000206E
:1008C0000064004090000020F0B585B004460D465D
:1008D0001746012600208DF808008DF80900082031
:1008E0008DF80A00072C06DC0F2D04DC46EA0426EE
:1008F00046EA051601E005B0F0BD00968DF80B70D4
:1009000055218DF80C108DF80D108DF80E108DF806
:100910000F108DF810108DF811108DF812100020A6
:100920000E49087069460E4800F0E6F800200D49AF
:1009300008600CE00120FFF745FD0A480068401CF4
:100940000849086008460068642800D903E00348A5
:1009500000780028EED000BF00BFCCE79400002054
:10096000006400409000002070B586B004460D463B
:10097000002600208DF80C008DF80D0008208DF861
:100980000E00072C06DC0F2D04DC46EA042646EA9E
:10099000051601E006B070BD019655208DF80F00D8
:1009A00055218DF810108DF811108DF812108DF85A
:1009B00013108DF814108DF815108DF816100020F6
:1009C0000E49087001A90E4800F096F800200D4964
:1009D00008600CE00120FFF7F5FC0A480068401CA5
:1009E0000849086008460068642800D903E0034805
:1009F00000780028EED000BF00BFCBE794000020B5
:100A000000640040900000202DE9F04385B080464E
:100A10000F4614461D460C9E4FF0060900208DF827
:100A200008008DF8090008208DF80A00B8F1070FBA
:100A300006DC0F2F04DC49EA082949EA071902E01D
:100A400005B0BDE8F083CDF8009041F288308442D3
:100A500001DD044603E02448844200DA0446002C09
:100A600004DA01DD204600E0604204B2002D04DA21
:100A700001DD284600E0684205B2200A8DF80B002F
:100A8000E1B28DF80C10290A8DF80D10E9B28DF83D
:100A90000E10310E8DF80F10310C8DF81010310A38
:100AA0008DF81110F1B28DF8121000200F49087066
:100AB00069460F4800F020F800200E4908600CE05D
:100AC0000120FFF77FFC0B480068401C09490860C3
:100AD00008460068642800D903E00448007800282C
:100AE000EED000BF00BFABE778ECFFFF9400002022
:100AF000006400409000002010B50246002093687A
:100B000003F08063B3F1806F00D110E0936803F0CD
:100B10000063B3F1006F01D1012008E0936803F096
:100B20008053B3F1805F01D1022000E0042004284B
:100B300074D002F5C07303EB00131B6803F00104CB
:100B400002F5C07303EB00131C600B7A7BB94B7A80
:100B50000C8843EA445302F5C07404EB0014246883
:100B6000234302F5C07404EB0014236010E00B7AF9
:100B70004C6843EAC4034C7A234302F5C07404EB87
:100B800000142468234302F5C07404EB00142360AE
:100B90008B7A03F00F038B7202F5C07303EB001323
:100BA0005B6823F00F0402F5C07303EB00135C6075
:100BB00002F5C07303EB00135B688C7A234302F5E4
:100BC000C07404EB001463608B7B1C064B7B44EA0F
:100BD00003440B7B44EA0323CC7A234302F5C0741D
:100BE00004EB0014A3608B7C1C064B7C44EA03449A
:100BF0000B7C44EA0323CC7B234302F5C07404EB53
:100C00000014E36002F5C07303EB00131B6843F0AC
:100C1000010402F5C07303EB00131C6010BD024613
:100C2000002002EA01030BB1012000E00020704720
:100C30007047000008B54FF47040ADF80000032085
:100C40008DF8020010208DF803006946194800F065
:100C500039F80020ADF80000C020ADF8000069466A
:100C6000154800F02FF80020ADF800004FF40050B8
:100C7000ADF800006946114800F024F80020ADF8F6
:100C80000000F020ADF8000048208DF80300694610
:100C90000B4800F017F80020ADF800004FF40140B9
:100CA000ADF8000048208DF803006946034800F0C5
:100CB00009F808BD000C014000100140002001406F
:100CC000000801402DE9F0410246002500260020E1
:100CD00000230024002791F803C00CF00F0591F8C1
:100CE00003C00CF0100CBCF1000F03D091F802C04F
:100CF0004CEA050591F800C0BCF1000F31D0146832
:100D000000202BE04FF0010C0CFA00F3B1F800C00A
:100D10000CEA03069E4220D183004FF00F0C0CFA20
:100D200003F7BC4305FA03FC4CEA040491F803C042
:100D3000BCF1280F06D14FF0010C0CFA00FCC2F8F0
:100D400014C00AE091F803C0BCF1480F05D14FF080
:100D5000010C0CFA00FCC2F810C0401C0828D1D3CA
:100D60001460B1F800C0BCF1FF0F34DD54680020FE
:100D70002EE000F1080C4FF0010808FA0CF3B1F86E
:100D800000C00CEA03069E4221D183004FF00F0CF5
:100D90000CFA03F7BC4305FA03FC4CEA040491F88F
:100DA00003C0BCF1280F05D100F1080C08FA0CF8BB
:100DB000C2F8148091F803C0BCF1480F07D100F1CC
:100DC000080C4FF0010808FA0CF8C2F81080401C1B
:100DD0000828CED35460BDE8F0810000F0B50A4683
:100DE000002300240021002500F00046B6F1004F4A
:100DF00002D11D4EF16901E01B4E7168C0F303453D
:100E000083B200F44016B6F5401F08D121F070619E
:100E1000154E766826F07066134F7E6012E000F47F
:100E20008016B6F5801F06D1032606FA05F4A14305
:100E300041F0706106E0460D360103FA06F6B14353
:100E400041F0706122B1460D360103FA06F63143D6
:100E500000F00046B6F1004F02D1034EF16101E00F
:100E6000014E7160F0BD000000000140024600200C
:100E700093680B400BB1012000E0002070474161F6
:100E8000704701617047000010B50446072C04DD6F
:100E900007A001F03BF8002010BD0948807A01212D
:100EA000A140084008B10120F6E70020F4E7000067
:100EB0004765745F494F5F4572726F7200000000B2
:100EC000EC00002000BFFEE7F8B5414800684FF491
:100ED0007A4190FBF1F201FB12063E48006890FB5C
:100EE000F1F201FB12043C48006890FBF1F201FBB7
:100EF0001205B4F5FA4F05DA36480068001B35498B
:100F0000086006E0C4F57A4032490968084431496E
:100F10000860B5F5FA4F05DA2F480068401B2E49E6
:100F2000086006E0C5F57A402B49096808442A495B
:100F3000086027480068801B25490860084600684B
:100F4000002805DB0846006800F5FA40086005E067
:100F50001F480068A0F5FA401D4908601C48006859
:100F600040424FF4167300901C48B0F90020012154
:100F70000020FFF749FD164800684FF416730090F3
:100F80001648B0F9002004210020FFF73DFD11486C
:100F900000684FF4167300901048B0F90020022149
:100FA0000020FFF731FD0C48006840424FF41673F3
:100FB00000900A48B0F9002003210020FFF724FD2B
:100FC000012001F06DF8002005490880F8BD0000FF
:100FD0004C000020500000205400002000000020A1
:100FE0006000002008B5FFF76FFF2648006826491B
:100FF0000968401A234908602448006800F57A50BF
:101000002249086022480068A0F57A50204908600B
:101010001C48006840424FF47A7300901D48B0F9B4
:10102000002001210020FFF7EFFC164800684FF474
:101030007A7300901748B0F9002004210020FFF7D0
:10104000E3FC124800684FF4167300901148B0F9A1
:10105000002002210020FFF7D7FC0D480068404225
:101060004FF4167300900B48B0F9002003210020C4
:10107000FFF7CAFC012001F013F8002006490880A0
:1010800008BD00004C0000207C0000205000002023
:1010900054000020000000206000002000BFFEE798
:1010A0007047000070B5002100230F22C47804B3FC
:1010B000154C246804F4E064C4F5E064210AC1F12D
:1010C0000403CA40447804FA03F1847814402143AD
:1010D00009010E4C0678A155047804F01F0501247F
:1010E000AC4005786D11AD0005F1E025C5F8004173
:1010F00009E0047804F01F050124AC40044D067893
:10110000761145F8264070BD0CED00E000E400E0EB
:1011100080E100E002490143024A1160704700008B
:101120000000FA050CED00E07047000029B1064A06
:10113000D2690243044BDA6104E0034AD269824374
:10114000014BDA61704700000010024029B1064AE5
:1011500012690243044B1A6104E0034A1269824394
:10116000014B1A61704700000010024029B1064A85
:1011700092690243044B9A6104E0034A92698243F4
:10118000014B9A61704700000010024010B5012128
:101190000420FFF7EBFF01210820FFF7E7FF012103
:1011A0001020FFF7E3FF01210802FFF7DFFF10BD6A
:1011B00030B500210022002400232D4D6D6805F07C
:1011C0000C0121B1042905D0082923D105E0294DBE
:1011D000056022E0274D05601FE0254D6D6805F490
:1011E0007012234D6D6805F48034022505EB9242A0
:1011F0001CB9214D554305600BE01D4D6D6805F48C
:1012000000351DB11C4D5543056002E0194D554395
:10121000056002E0174D056000BF00BF144D6D680A
:1012200005F0F0010909154D6B5C0568DD4045606E
:101230000F4D6D6805F4E061090A104D6B5C45685F
:10124000DD4085600A4D6D6805F46051C90A0B4D9B
:101250006B5C4568DD40C560054D6D6805F4404137
:10126000890B074D6B5CC568B5FBF3F5056130BDB7
:101270000010024000127A0000093D00B700002073
:10128000C7000020704710B500F002F810BD000044
:101290000CB50020019000903348006840F4803085
:1012A0003149086000BF3048006800F40030009009
:1012B0000198401C0190009818B90198B0F5A06FF2
:1012C000F1D12948006800F4003010B101200090ED
:1012D00001E0002000900098012843D123480068D5
:1012E00040F01000214908600846006820F0030023
:1012F00008600846006840F0020008601A4840682C
:10130000194948600846406848600846406840F40B
:10131000806048600846406820F47C1048600846B9
:10132000406840F4E81048600846006840F080706B
:10133000086000BF0C48006800F000700028F9D079
:101340000948406820F003000749486008464068A3
:1013500040F00200486000BF0348406800F00C0005
:101360000828F9D10CBD0000001002400020024006
:101370007047000010B51348006840F001001149A3
:10138000086008464068104908400E494860084611
:1013900000680E4908400B4908600846006820F4C0
:1013A000802008600846406820F4FE0048604FF442
:1013B0001F008860FFF767FF4FF000600449086076
:1013C00010BD0000001002400000FFF8FFFFF6FE15
:1013D00008ED00E0F8B50121C44800F022FA002829
:1013E0007DD00121C14800F00DFAC14800780128E4
:1013F00075D1C04800684FF47A4190FBF1F201FBCF
:101400001204BD48006890FBF1F201FB1205BB48D5
:10141000006890FBF1F201FB1206B4F57A5F15DB70
:101420004BF68030844211DCC4F5FA40002802DD1E
:10143000C4F5FA4001E0A4F5FA40C0F57A50642101
:1014400090FBF1F08000AE49086002E00020AC495A
:101450000860B5F57A5F15DB4BF68030854211DC0C
:10146000C5F5FA40002802DDC5F5FA4001E0A5F512
:10147000FA40C0F57A50642190FBF1F08000A14958
:10148000086002E000209F490860B6F57A5F15DB2E
:101490004BF68030864211DCC6F5FA40002802DDAA
:1014A000C6F5FA4001E0A6F5FA40C0F57A5064218D
:1014B00090FBF1F080009449086002E0002092491E
:1014C00008608F480068012812DB9048B0F90000DE
:1014D0008B49096890FBF1F08D49096800E003E150
:1014E00091FBF0F08A490968081A8A49086003E00C
:1014F000874800688749086082480068012810DB37
:101500008248B0F900007F49096890FBF1F08049FA
:10151000096891FBF0F07E490968081A7E49086065
:1015200003E07B4800687C4908607C48007800281C
:101530002AD07A480078012827D17948007848B91C
:10154000FFF7C2FC01207649087000207549087039
:10155000754908707548B0F90000C82871DB654806
:1015600000686C490968084462490860624800687C
:10157000694909680844604908606048006866492C
:10158000096808445D4908605BE064480078022807
:1015900057D062480078032809D1FFF795FC002056
:1015A0005F4908705F4908705F49087049E05B480F
:1015B0000078042821D15B48007850B9FFF712FD6C
:1015C00000205749087001205649087000205649EC
:1015D00008705648B0F90000C82832DB4648006859
:1015E0004D490968084444490860444800684A492C
:1015F0000968401A4149086023E0484800780528F6
:101600001FD14948007848B9FFF7ECFC0020444955
:101610000870444908700120434908704348B0F9F4
:101620000000C8280DDB344800683B490968401AAF
:1016300031490860314800683749096808442F4932
:1016400008603A48B0F90000C82841DB2948006822
:10165000404200902D48008829490988401A03B269
:101660003348B0F9002001210020FFF7CDF92148CF
:10167000006800902548008821490988401A03B273
:101680002B48B0F9002004210020FFF7BDF91A48CB
:10169000006800901D4800881A490988401A03B262
:1016A0002348B0F9002002210020FFF7ADF91348CC
:1016B0000068404200901548008813490988401A84
:1016C00003B21B48B0F9002003210020FFF79CF96A
:1016D0001648B0F90000C82805DC14480088401CF2
:1016E00000B21249088000BFF8BD000000040040AD
:1016F000020000204C000020500000205400002078
:101700008000002084000020880000205E0000206F
:101710003C00002040000020440000205800002031
:10172000590000205A0000205B00002060000020CB
:101730000000002010B501212C4800F072F80028AC
:1017400053D00121294800F05DF82948007801288C
:101750004BD128480078002847D027480068B0F5CA
:101760007A6F1FDC0320FFF78FFBD8B1802123485D
:10177000FFF787FB2248007838B940211F48FFF760
:1017800080FB01201E4908702FE040211B48FFF715
:1017900076FB19480068401C17490860002018496A
:1017A000087022E01448006801281EDB0320FFF7C0
:1017B0006BFBD0B980211148FFF761FB104800781E
:1017C00038B940210D48FFF75CFB01200C49087037
:1017D0000BE040210948FFF752FB07480068401E14
:1017E0000549086000200649087010BD000C004043
:1017F00002000020B60000201C0000200010014064
:1018000018000020CA430282704721B1028842F0CA
:101810000102028004E002884FF6FE731A40028043
:10182000704730B50246002000230024158A05EADF
:101830000103958905EA010413B10CB1012000E010
:10184000002030BD1AB183890B43838102E0838974
:101850008B43838170470000002202881D4B984211
:101860000ED01D4B98420BD0B0F1804F08D01B4BCF
:10187000984205D01A4B984202D01A4B984204D194
:101880004FF68F731A404B881A43174B984207D074
:10189000164B984204D04FF6FF431A40CB881A43A8
:1018A00002808B8883850B8803850A4B98420BD076
:1018B000094B984208D00E4B984205D00D4B9842E8
:1018C00002D00D4B984201D10B7A0386012383820B
:1018D00070470000002C014000340140000400402B
:1018E00000080040000C00400010004000140040C0
:1018F0000040014000440140004801401FB504463B
:1019000001210220FFF712FC601E80B2ADF8080032
:1019100041F61F40ADF804000020ADF80A00ADF814
:10192000060001A90D48FFF797FF012241210B484E
:10193000FFF788FF1D208DF8000000208DF80100C2
:1019400004208DF8020001208DF803006846FFF79F
:10195000A9FB01210148FFF758FF1FBD000400400B
:1019600010B540F225516B4800F00CF900287DD0ED
:1019700040F22551674800F0DDF8664800F098F91C
:101980006549664A1278885464480078401C634967
:1019900008706348007808B362480078F0B10846E0
:1019A0000078401E5C49085CED2808D15B4800784F
:1019B000401E0F2803D101205B49087035E05748CD
:1019C0000078401E0F2830DD002057490870554927
:1019D0000870534908705149087026E04F48007854
:1019E000401E4D49085CFA2806D14D48007818B9C8
:1019F00001204B49087018E048480078401E4649CD
:101A0000085CAF280AD146480078012806D145482D
:101A1000007818B901204349087006E000204149C8
:101A200008703F4908703D4908703F480078012818
:101A30006ED10020394908703B4908703949087057
:101A400037490870344880783849C880084680791A
:101A5000000200B2C8800846B0F906002E49C978D5
:101A600008433249C8802C48007900E050E04880A3
:101A700008468078000200B248800846B0F90200AB
:101A80002549497908432949488023488079888035
:101A900008460079000200B288800846B0F90400C8
:101AA0001D49C9790843214988801B48007A08806C
:101AB00008460078000200B208800846B0F900002D
:101AC0001549497A0843194908801348C07A0881A2
:101AD0000846007A000200B208810846B0F9080002
:101AE0000D49097B0843114908810B48407B488117
:101AF0000846807A000200B248810846B0F90A0020
:101B00000549897B08430949488101200849087033
:101B100010BD000000480040EC000020B200002092
:101B2000B3000020B4000020B5000020E000002039
:101B3000B600002010B50022002340F66A14A1422E
:101B400000D100BF0A1201249440A3B2DC430480F8
:101B500010BD21B1828942F40052828104E0828961
:101B60004DF6FF731A408281704702460020B1F59E
:101B7000007F00D100BF13880B400BB1012000E0B3
:101B80000020704770B50246002400230025002085
:101B900040F66A16B14200D100BFC1F3421501F010
:101BA0001F03012606FA03F3012D02D19689334063
:101BB00006E0022D02D1168A334001E0968A3340B6
:101BC0000C12012606FA04F41688344013B10CB145
:101BD000012000E0002070BD2DE9F04786B00546E9
:101BE0000E460024A24600BFA1460027B08900B1DE
:101BF00000BF2F462C8A4CF6FF700440F088044347
:101C00002C82AC894EF6F3100440B0883189084329
:101C1000718908430443AC81AC8A4FF6FF4004400D
:101C2000B0890443AC8201A8FFF7C2FA1F4887427B
:101C300002D1DDF810A001E0DDF80CA0A88900F4C5
:101C4000004040B10AEBCA0000EB0A1031684900BD
:101C5000B0FBF1F807E00AEBCA0000EB0A103168AC
:101C60008900B0FBF1F86420B8FBF0F00401200912
:101C7000642101FB1089A88900F4004040B13220A2
:101C800000EBC900B0FBF1F000F00700044308E0EE
:101C9000322000EB09106421B0FBF1F000F00F00DE
:101CA00004432C8106B0BDE8F087000000380140F5
:101CB00001468888C0F308007047C1F3080282809B
:101CC0007047000010B501210548FEF70DFC30B14A
:101CD00001210348FEF706FB01200249087010BDF0
:101CE000006400409400002000B585B002217F48C8
:101CF000FEF7FAFB002839D002217C48FEF7F2FA01
:101D00006A4600217948FEF712FD9DF80800002878
:101D10002CD19DF808000028FAD19DF80A00082867
:101D2000F6D100981B2822D19DF80C009DF80B10CD
:101D300040EA012000B26E4908809DF80E109DF81F
:101D40000D0041EA002000B26A4908809DF80F00AA
:101D500001069DF8100041EA00419DF8110041EA9A
:101D600000209DF81210084363490860BCE0009809
:101D70002B2822D19DF80C009DF80B1040EA012081
:101D800000B25B4948809DF80E109DF80D0041EAB5
:101D9000002000B2574948809DF80F0001069DF8C9
:101DA000100041EA00419DF8110041EA00209DF831
:101DB000121008435049486096E000983B2822D111
:101DC0009DF80C009DF80B1040EA012000B2484934
:101DD00088809DF80E109DF80D0041EA002000B2A9
:101DE000444988809DF80F0001069DF8100041EAE3
:101DF00000419DF8110041EA00209DF812100843AF
:101E00003D49886070E000984B2822D19DF80C0075
:101E10009DF80B1040EA012000B23549C8809DF8BA
:101E20000E109DF80D0041EA002000B23149C88033
:101E30009DF80F0001069DF8100041EA00419DF851
:101E4000110041EA00209DF8121008432A49C86099
:101E50004AE000981F2803D101202849087043E078
:101E600000982F2803D10120244948703CE00098B5
:101E70003F2803D101202149887035E000984F2880
:101E800003D101201D49C8702EE000981C2808D1FC
:101E90009DF80B001A4908709DF80C00194908704C
:101EA00022E000982C2808D19DF80B0014494870B6
:101EB0009DF80C001349487016E000983C2808D1A2
:101EC0009DF80B000E4988709DF80C000D49887034
:101ED0000AE000984C2807D19DF80B000849C8700B
:101EE0009DF80C000749C87005B000BD00640040B3
:101EF000960000209E000020D0000020A6000020B8
:101F0000AA000020AE00002000BFFEE70FB4054B82
:101F100010B503A9044A029800F018F810BC5DF847
:101F200014FB000041210008CC00002002E008C89A
:101F3000121F08C1002AFAD170477047002001E043
:101F400001C1121F002AFBD1704700002DE9FF4F8D
:101F500089B09B460446002506E025280BD05A464A
:101F60000B999047641C6D1C20780028F5D10DB0AA
:101F70002846BDE8F08F0027B8460122474900E017
:101F8000074314F8013F203B02FA03F00842F7D15F
:101F900020782E2819D114F8010F47F004072A28B9
:101FA0000ED06FF02F022078A0F1300109290CD853
:101FB00008EB880102EB410100EB0108641CF2E729
:101FC0000A98641C50F8048B0A9020780028CED020
:101FD000642808D0692806D075281ED05A460B9967
:101FE00090476D1C58E00A994FF00A0901C90A91FF
:101FF000002802DA40422D2102E0390504D52B21C8
:102000008DF82010012103E0F90704D02021F7E723
:102010008A4608AE0DE00021FAE70A994FF00A0956
:1020200001C90A91F7E74946FEF79EF8303106F8F4
:10203000011D0028F7D1ADEB060000F1200978075B
:1020400001D44FF00108C84502DDA8EB090000E00B
:1020500000208046002706E008A85A46C05D0B997C
:1020600090476D1C7F1C5745F6DB04E030205A4634
:102070000B9990476D1CB8F10001A8F10108F5DC3F
:1020800005E016F8010B5A460B9990476D1CB9F103
:102090000001A9F10109F4DC641C65E709280100CD
:1020A00070B5044624B9214608A0FFF72FFF70BD84
:1020B000002507E042F63C0000BF011EA0F1010030
:1020C000FBD16D1CA542F5D300BFF0E744656C6100
:1020D00079204572726F72200D0A2044656C617917
:1020E00054696D65206973202564200D0A00000085
:1020F00070B5044624B9214608A0FFF707FF70BD5C
:10210000002506E0092000BF011EA0F10100FBD15F
:102110006D1CA542F6D300BFF1E7000044656C6179
:1021200079204572726F72200D0A2044656C6179C6
:1021300054696D65206973202564200D0A00000034
:1021400070B504460D4600BF40210948FFF70DFD5C
:102150000128F9D1E1B20648FFF7AFFD00BF4021E9
:102160000348FFF702FD0128F9D1204670BD0000A9
:102170000038014008B5FFF709F84FF4A060FEF7FA
:10218000C9FFFEF757FD00F07DFA6420FFF7B6FBAC
:10219000FEF714F84FF4FA70FFF782FF00210846AB
:1021A000FEF7E2FB4FF4FA70FFF77AFF0023FA2202
:1021B00001211846FEF734FBC820FFF799FF0023E2
:1021C000FA2202211846FEF72BFBC820FFF790FFEA
:1021D0000023FA2203211846FEF722FBC820FFF74E
:1021E00087FF0023FA2204211846FEF719FBC820B6
:1021F000FFF77EFF052200210846FEF765FB4FF43E
:10220000FA70FFF74DFF0020FE4908604FF4FA40D6
:10221000FD490860FD490860FA48006840424FF4F3
:1022200016730090FA48B0F9002001210020FEF753
:10223000EBFBF44800684FF416730090F448B0F9D3
:10224000002004210020FEF7DFFBEF4800684FF478
:1022500016730090EE48B0F9002002210020FEF72E
:10226000D3FBEA48006840424FF416730090E848F8
:10227000B0F9002003210020FEF7C6FB0120E5494C
:1022800008700020E4490870E4490870E4490870C7
:102290000120E4490870ECE1E34800680B2811D202
:1022A000DFE800F0061127495F8197B9D2E9FE0007
:1022B000D848007830B90320DC490870D14800685C
:1022C000DB4908601AE10120D8490870CD48006850
:1022D000D7490968401A4FF47A4190FBF1F0092878
:1022E00006DBCA480068D34908600220CE4908606E
:1022F00004E10520CD490870C4480068CD4909684B
:10230000401ACD49086008460068002802DD0846EA
:10231000006802E0C848006840424FF47A4190FBF0
:10232000F1F0042806DBB7480068C14908600320C3
:10233000BD490860E2E00120BC490870B14800686E
:10234000BB490968401A4FF47A4190FBF1F0062826
:1023500006DBAE480068B74908600420B24908604F
:10236000CCE00520B1490870A8480068B149096867
:10237000401AB149086008460068002802DD084696
:10238000006802E0AC48006840424FF47A4190FB9C
:10239000F1F0052806DB0520A3490860994800688C
:1023A000A3490860AAE00120A04908709548006888
:1023B0009F490968401A4FF47A4190FBF1F00428D4
:1023C00006DB924800689B49086006209649086031
:1023D00094E00420954908708C4800689549096884
:1023E000401A9549086008460068002802DD084642
:1023F000006802E09048006840424FF47A4190FB48
:10240000F1F00E2806DB0720874908607D48006848
:102410008749086072E001208449087079480068A3
:1024200083490968401A4FF47A4190FBF1F009287A
:1024300009DB764800687F49086000207A49086017
:1024400001207E49087059E00120784908706D48E4
:10245000006877490968401A4FF47A4190FBF1F01F
:10246000022807DB69480068724908607448006800
:102470006D49086042E001206C49087061480068BD
:102480006B490968401A4FF47A4190FBF1F0092832
:1024900008DB5E480068674908600A20624900E07E
:1024A00001E008602AE0042060490870574800688D
:1024B00060490968401A60490860084600680028B9
:1024C00002DD0846006802E05B48006840424FF4C5
:1024D0007A4190FBF1F008280FDB4FF40051594886
:1024E000FEF7CFFC47480068514908604FF47A7006
:1024F000FFF7D6FD00204C49086000BF00BF102147
:102500005148FEF7B3FC80B90120FFF7C9FD102147
:102510004D48FEF7ABFC00284ED13E4908704749B4
:10252000087001204049086046E020214648FEF737
:102530009DFC60B94FF49670FFF7DAFD2021424808
:10254000FEF794FCC0BB00203749086034E040210E
:102550003D48FEF78BFCA8B90120FFF7A1FD402103
:102560003948FEF783FC38BB2648006830490860CC
:1025700003203349086008202B49086000202F49B8
:10258000087019E080213048FEF770FCA0B90120E6
:10259000FFF786FD80212C48FEF768FC60B91948DA
:1025A00000682349086005202549086008201E4965
:1025B00008600020214908704FF480712348FEF71D
:1025C00055FC90B91D48007801280ED1FFF768FD31
:1025D0004FF480711D48FEF749FC30B90948006886
:1025E000134908600920104908604FF4004117485A
:1025F000FEF73CFC60BB07480078012839D14FF456
:10260000FA7026E04C00002050000020540000200A
:10261000000000205C000020590000205A0000202B
:102620005B000020020000206C0000205800002009
:102630007000002064000020680000207800002066
:1026400074000020000C01400008014000200140FF
:102650000FE0FFF725FD4FF400410648FEF706FCAA
:1026600038B9002004490870044908700120044961
:10267000086011E6002001405C0000207800002086
:102680006C00002000B585B0012144F21400FEF773
:102690006DFD4FF40070ADF8100018208DF8130098
:1026A00003208DF8120004A91348FEF70BFB4FF42A
:1026B0008060ADF8100004208DF8130004A90E48C6
:1026C000FEF700FB4FF4E13000900020ADF804006D
:1026D000ADF80600ADF80800ADF80C000C20ADF820
:1026E0000A0069460548FFF777FA01210348FFF71A
:1026F00030FA05B000BD000000080140003801407C
:102700002027000800000020D00000002C1F000837
:10271000F0270008D0000020300400003C1F000813
:10272000881300000000000000000000000000000E
:102730000000000000000000000000000000000099
:102740000000000000000000000000000000000089
:1027500000000000000019000400000090010000CB
:1027600090010000900100009001000000000000B6
:102770000000000000000000000000000000DC0578
:102780000000000000000000000000000000000049
:10279000000000000000000000000000A00F00008A
:1027A0000000000000000000000000000000000029
:1027B0000000000000000000000000000000000019
:1027C0000000000000000000000000000000000009
:1027D00000000000000000000000000102030401EE
:1027E00002030406070809020406080000000000AE
:0400000508000131BD
:00000001FF
