:020000040800F2
:100000009004002045010008351300080D12000877
:10001000311300088D080008ED1F000800000000E3
:10002000000000000000000000000000851500082E
:100030002D100008000000000114000871160008CF
:100040005F0100085F0100085F0100085F01000810
:100050005F0100085F0100085F0100085F01000800
:100060005F0100085F0100085F0100085F010008F0
:100070005F0100085F0100085F0100085F010008E0
:100080005F0100085F0100085F010008A91D00086A
:10009000CD1D00085F0100085F0100085F01000836
:1000A0005F0100085F0100085F0100085F010008B0
:1000B0005F010008D51600085F0100085F01000815
:1000C0005F0100085F0100085F0100085F01000890
:1000D0005F0100085F0100085F010008091A0008BD
:1000E0005F0100085F0100085F0100085F01000870
:1000F0005F0100085F0100085F0100085F01000860
:100100005F0100085F0100085F0100085F0100084F
:100110005F0100085F0100085F0100085F0100083F
:100120005F0100085F0100085F0100085F0100082F
:10013000DFF80CD000F014FA004800478D220008C8
:10014000900400200648804706480047FEE7FEE787
:10015000FEE7FEE7FEE7FEE7FEE7FEE7FEE7FEE777
:10016000751600083101000840EA01039B0703D01F
:1001700009E008C9121F08C0042AFAD203E011F8E6
:10018000013B00F8013B521EF9D270472DE9FE4FAA
:10019000804681EA0300C00F0C46009021F0004128
:1001A00023F00045B8EB0200A94105D240462146A4
:1001B00090461C460B46024623F00040104347D0B1
:1001C000270DC7F30A00C3F30A510290401A0190A9
:1001D00040286BDAC3F3130040F4801B009892466A
:1001E00020B10023D2EB030A63EB0B0B01985946B5
:1001F000C0F14002504600F024F906460D46504634
:100200005946019A00F03CF910EB080061410024C6
:1002100087EA115284EAE7731A4340D0009A62B326
:10022000019A012A4FEA075215DC001B61EB02011B
:100230004FF0004202EA0752CDE90042001C41F5AE
:10024000801132462B4600F03CF903B0BDE8F08F38
:1002500040462146F9E7001B61EB0201001C41F515
:10026000801300185B412018A2F5001747EB03012B
:1002700040EAD570B6196D4111E06D084FEA3606B7
:1002800045EAC0754FEA0752001B61EB0201001CF2
:1002900041F5801149084FEA3000001951413246BA
:1002A0002B4603B0BDE8F04F00F0FCB800980122E7
:1002B00040000023D0EB020263EBE073009821467C
:1002C0004FEAE074B8EB000061EB0401E9E783F06A
:1002D00000435BE781F0004158E72DE9FE4F81EADA
:1002E000030404F0004421F0004100944FF0000B9F
:1002F00023F0004350EA01045ED052EA03045BD0CD
:10030000C3F30A54C1F30A552C44A4F2F334019404
:10031000A0FB0254C1F3130141F48011C3F3130392
:1003200043F4801301FB024400FB034E840A970A46
:1003300044EA815447EA8357A4FB076802958D0A73
:1003400005FB07854FEA932C04FB0C542705029DFF
:100350004FEA065847EA1637B5EB08056EEB070C6F
:10036000870E920E47EA811742EA8312A7FB020129
:10037000B6EB0B0164EB00042B0D43EA0C335E1863
:1003800044EB1C50DA465146E7FB0201C5F3130467
:100390004FEA0B3343EA14534FEA0432019C43EA19
:1003A0000603A4F10C040294009CCDE900B400F013
:1003B00088F803B0BDE8F08F00200146F9E70EB5DC
:1003C00040F2334102910021CDE900110A460B466B
:1003D00000F077F803B000BD70B5C1F30A5201F028
:1003E00000450024C1F3130140F2FF3341F48011B2
:1003F0009A4201DA002070BD40F233439A42A2F2E1
:10040000334203DC524200F02BF800E090402C43D2
:10041000F1D0404270BD30B50B460146002020228D
:10042000012409E021FA02F59D4205D303FA02F501
:10043000491B04FA02F52844151EA2F10102F1DC61
:1004400030BD202A04DB203A00FA02F10020704778
:100450009140C2F1200320FA03F319439040704702
:10046000202A04DB203A21FA02F00021704721FA09
:1004700002F3D040C2F12002914008431946704770
:10048000202A06DBCB17203A41FA02F043EAE07358
:1004900006E041FA02F3D040C2F120029140084345
:1004A0001946704710B5141E73F1000408DA401C99
:1004B00041F1000192185B411A4301D120F0010083
:1004C00010BD2DE9F04D92469B4611B1B1FA81F273
:1004D00002E0B0FA80F220329046FFF7B2FF044605
:1004E0000F4640EA0A0041EA0B0153465A460843C8
:1004F00013D0114653EA010019D0C8F1400250460A
:10050000FFF7AEFF05460E46504659464246FFF7F6
:1005100098FF084305D0012004E020463946BDE895
:10052000F08D0020054346EAE0762C4337430A98D5
:100530006305E40AA0EB08000022FD0A44EA4754E0
:100540000A3002D500200146E9E70105101969418A
:10055000DDE9084500196941BDE8F04DA2E700005A
:10056000064C074D06E0E06840F0010394E8070000
:1005700098471034AC42F6D3FFF7DEFD6423000841
:100580008423000821B1826842F00102826003E006
:10059000826822F001028260704721B1826842F4D1
:1005A0008072826003E0826822F480728260704709
:1005B000014600208A6802F004020AB1012000E02E
:1005C00000207047014600208A6802F008020AB144
:1005D000012000E00020704730B5024600200023D3
:1005E00050680F4C20400D790C6844EA05242043E4
:1005F000506090680B4C2040D1E902542C434D7957
:1006000044EA450420439060D06A20F470000C7CDA
:10061000641EE4B2234340EA0350D06230BD0000C0
:10062000FFFEF0FFFDF7F1FFF0B504460D46002098
:100630000021092D11DDE068A5F10A0606EB460749
:10064000072606FA07F18843A5F10A0606EB4606D7
:1006500003FA06F10843E0600CE0206905EB45076A
:10066000072606FA07F1884305EB450603FA06F16B
:1006700008432061072A0FDA606B561E06EB8607D7
:100680001F2606FA07F18843561E06EB860605FA72
:1006900006F10843606322E00D2A0FDA206BD61FB3
:1006A00006EB86071F2606FA07F18843D61F06EBDE
:1006B000860605FA06F10843206310E0E06AA2F11D
:1006C0000D0606EB86071F2606FA07F18843A2F1FE
:1006D0000D0606EB860605FA06F10843E062F0BD5A
:1006E000816841F008018160704721B1826842F45D
:1006F000A002826003E0826822F4A0028260704758
:10070000816841F004018160704700002DE9F047E5
:1007100082465046FFF753FE8046074A074BFFF7D5
:10072000DCFD06460022064BFFF730FD0446FFF7CE
:1007300053FE00B2BDE8F0871FF4411FF441DF3FD4
:1007400000408FC008B50121102000F087FE1E2058
:10075000ADF8000000208DF803006946014800F064
:10076000BFFC08BD0010014010B5FFF7EBFF00F023
:1007700001F810BD00B591B00121084600F04EFE11
:100780000121480200F06AFE3D4800F08BFB3D4825
:1007900006903D4807900020089004200990002012
:1007A0000A9080200B9040000C9080000D9020203B
:1007B0000E9000020F900020109006A9304800F023
:1007C00017FC01212E4800F061FB00200190012060
:1007D0008DF808008DF809004FF460200390002088
:1007E000049004208DF8140001A926484C38FFF726
:1007F000F3FE4FF4404000F005FE052301220B21DB
:1008000020484C38FFF710FF052302220C211D4819
:100810004C38FFF709FF052303220D2119484C38F6
:10082000FFF702FF052304220E2116484C38FFF77C
:10083000FBFE012113484C38FFF7AFFE01211148A0
:100840004C38FFF79FFE0F484C38FFF749FF00BFB9
:100850000C484C38FFF7B6FE0028F9D109484C384F
:10086000FFF74EFF00BF07484C38FFF7A1FE0028F6
:10087000F9D1012103484C38FFF737FF11B000BD13
:10088000080002404C2401403200002000BFFEE777
:10089000B1F5007F3AD00FDC202928D006DC0129F1
:1008A0001CD004291DD0082940D11DE0402921D0A9
:1008B000B1F5807F3AD126E0B1F5004F31D006DCAA
:1008C000B1F5806F25D0B1F5006F2FD124E0B1F5DF
:1008D000803F12D0B1F5003F28D111E0154A826067
:1008E00025E00822C26022E01022C2601FE0082238
:1008F00002611CE01022026119E00822426016E049
:100900001022426013E00422426010E004224260A0
:100910000DE0042242600AE000228261042242606B
:1009200005E0002282610422426000E000BF00BFB7
:10093000704700000101010070B504460D46002615
:1009400060692840002871D0B5F5807F5CD010DC4C
:10095000082D35D006DC012D20D0022D24D0042D09
:1009600072D127E0102D31D0202D35D0402D6BD104
:1009700038E0B5F5004F60D009DCB5F5007F49D00F
:10098000B5F5806F4CD0B5F5006F5DD14FE0B5F592
:10099000803F2DD0B5F5003F56D12FE0A0682D49FE
:1009A00000F0CBF9064651E0E068032100F0C5F9FC
:1009B00006464BE0E068082100F0BFF9064645E036
:1009C000E068102100F0B9F906463FE020690321F4
:1009D00000F0B3F9064639E02069082100F0ADF9CE
:1009E000064633E02069102100F0A7F906462DE005
:1009F0006068082100F0A1F9064627E06068102130
:100A000000F09BF9064621E0A069012100F095F96C
:100A100006461BE0A069022100F08FF9064615E0AA
:100A2000A069042100F089F906460FE00FE0A069F3
:100A3000702100F082F9064608E06068042100F0A9
:100A40007CF9064602E0FFE7002600BF00E0002632
:100A5000304670BD0101010010B500F5D87303EBFD
:100A600001131B6803F004031372137A53B900F5E2
:100A7000D87303EB01131B6840F2FF7404EA53536D
:100A8000136009E000F5D87303EB01131B686FF0E6
:100A9000604404EAD303536000F5D87303EB0113F9
:100AA0001B6803F00203537200F5D87303EB0113C4
:100AB0005B6803F00F03937200F5D87303EB011327
:100AC0005B681B0AD37400F5D87303EB01139B68B2
:100AD000D37200F5D87303EB01139B681C0A1473DF
:100AE00000F5D87303EB01139B681C0C547300F5DD
:100AF000D87303EB01139B681B0E937300F5D87337
:100B000003EB0113DB68D37300F5D87303EB011318
:100B1000DB681C0A147400F5D87303EB0113DB685F
:100B20001C0C547400F5D87303EB0113DB681B0E27
:100B3000937421B9C36843F02003C36003E00369E1
:100B400043F02003036110BD10B58CB0044608A823
:100B500001F04EFA04A801F06BFABDF9200000285C
:100B600003DBBDF91000002807DABDF920000028DA
:100B70004EDABDF9100000284ADABDF82200BDF8AF
:100B80001210084400B2ADF80200BDF920000028A0
:100B900002DDBDF9200002E0BDF920004042BDF9B0
:100BA0001010002902DDBDF9101002E0BDF910108F
:100BB0004942884202DDBDF9200001E0BDF9100084
:100BC000ADF80000BDF92600002802DDBDF92600C1
:100BD00002E0BDF926004042BDF91610002902DDF1
:100BE000BDF9161002E0BDF916104942884202DD37
:100BF000BDF9260001E0BDF91600ADF80600BDF80C
:100C00002400BDF81410084400B2ADF8040049E017
:100C1000BDF92200002802DDBDF9220002E0BDF985
:100C200022004042BDF91210002902DDBDF9121068
:100C300002E0BDF912104942884202DDBDF92200EE
:100C400001E0BDF91200ADF80200BDF82000BDF8CA
:100C50001010084400B2ADF80000BDF82600BDF841
:100C60001610084400B2ADF80600BDF924000028B3
:100C700002DDBDF9240002E0BDF924004042BDF9C7
:100C80001410002902DDBDF9141002E0BDF91410A2
:100C90004942884202DDBDF9240001E0BDF914009B
:100CA000ADF80400BDF82800ADF80800BDF81A0042
:100CB000ADF80A000E2269462046FFF755FA0CB03F
:100CC00010BD10B58CB0044608A800F077FB04A84E
:100CD000FFF73AFFBDF81600BDF82610084400B231
:100CE000ADF80600BDF81400BDF82410084400B2A9
:100CF000ADF80400BDF81200BDF82210084400B29F
:100D0000ADF80200BDF81000BDF82010084400B294
:100D1000ADF80000BDF81800ADF80800BDF81A00E5
:100D2000ADF80A00BDF82C00ADF80C000E226946A3
:100D30002046FFF719FA0CB010BD0246002002EA67
:100D400001030BB1012000E00020704710B586B010
:100D5000FFF70AFD00200490059002900390009098
:100D60000190322001F050FA002417E03149488800
:100D7000FFF7CCFC04A921F814002E498888FFF75E
:100D8000C5FC02A921F814002A49C888FFF7BEFC57
:100D90002DF81400322001F037FA641C032CE5DB37
:100DA000BDF91000BDF912100844BDF91410084433
:100DB000032190FBF1F0404200B21F490880BDF9C9
:100DC0000800BDF90A100844BDF90C1008440321BD
:100DD00090FBF1F000B219490880BDF90000BDF99F
:100DE00002100844BDF904100844032190FBF1F0FF
:100DF00000B2134908801048B0F90000642804DCF0
:100E00000E48B0F90000642808DD0C48B0F9002055
:100E10000948B0F900100BA001F02CF90748B0F90F
:100E200000200548B0F9001010A001F023F906B029
:100E300010BD0000320000203A0000203C000020DD
:100E40003E0000204572726F722021212120496EE0
:100E500069745F58203D3D202564202C496E6974DB
:100E60005F59203D3D202564200D0A00496E6974BC
:100E70005F58203D3D202564202C496E69745F59E0
:100E8000203D3D202564200D0A00000021B10268AC
:100E900042F00102026004E002684FF6FE731A405D
:100EA0000260704701684FF6FE7211400160002138
:100EB000016041608160C1604B49884208D14A4964
:100EC0000839496841F00F01474A083A51608AE001
:100ED00045491431884208D143490839496841F0ED
:100EE000F001414A083A51607DE03F49283188428B
:100EF00008D13D490839496841F470613A4A083AD5
:100F0000516070E038493C31884208D1364908398F
:100F1000496841F47041344A083A516063E032490B
:100F20005031884208D130490839496841F470216C
:100F30002D4A083A516056E02B496431884208D165
:100F400029490839496841F47001274A083A516033
:100F500049E025497831884208D123490839496850
:100F600041F07061204A083A51603CE01F498842D4
:100F700006D1011F096841F00F01021F116032E024
:100F80001A491431884208D11849091F096841F0EB
:100F9000F001164A121F116025E0144928318842D9
:100FA00008D11249091F096841F470610F4A121FE4
:100FB000116018E00D493C31884208D10B49091FE6
:100FC000096841F47041094A121F11600BE007499A
:100FD0005031884207D10549091F096841F4702141
:100FE000024A121F116070470800024008040240C4
:100FF00010B50022026847F6F0739A430C6A8B68BA
:1010000023430C6923434C6923438C692343CC69F4
:1010100023434C6A23438C6A23431A430260CB6800
:1010200043600B6883604B68C36010BD704700006D
:1010300008B54FF47040ADF8000003208DF80200B1
:1010400010208DF803006946214800F049F800207F
:10105000ADF80000C020ADF8000069461D4800F062
:101060003FF80020ADF800004FF40050ADF800004C
:101070006946194800F034F80020ADF800004FF43C
:10108000FE70ADF8000048208DF803006946134853
:1010900000F026F80020ADF800004FF48060ADF8B5
:1010A000000018208DF803006946094800F018F880
:1010B0000020ADF800004FF40060ADF800000420FF
:1010C0008DF803006946024800F00AF808BD0000E8
:1010D000000C0140001001400020014000080140C8
:1010E0002DE9F041024600250026002000230024BF
:1010F000002791F803C00CF00F0591F803C00CF025
:10110000100CBCF1000F03D091F802C04CEA0505A9
:1011100091F800C0BCF1000F31D0146800202BE022
:101120004FF0010C0CFA00F3B1F800C00CEA030612
:101130009E4220D183004FF00F0C0CFA03F7BC4302
:1011400005FA03FC4CEA040491F803C0BCF1280F33
:1011500006D14FF0010C0CFA00FCC2F814C00AE0F2
:1011600091F803C0BCF1480F05D14FF0010C0CFA07
:1011700000FCC2F810C0401C0828D1D31460B1F89C
:1011800000C0BCF1FF0F34DD546800202EE000F1F8
:10119000080C4FF0010808FA0CF3B1F800C00CEA93
:1011A00003069E4221D183004FF00F0C0CFA03F787
:1011B000BC4305FA03FC4CEA040491F803C0BCF1FB
:1011C000280F05D100F1080C08FA0CF8C2F81480B9
:1011D00091F803C0BCF1480F07D100F1080C4FF0A3
:1011E000010808FA0CF8C2F81080401C0828CED379
:1011F0005460BDE8F0810246002093680B400BB1BB
:10120000012000E0002070470161704700BFFEE749
:1012100000B59DB029A30FCBCDE91B23CDE9190162
:1012200030222AA10DA8FEF79FFF34A090E80E00FF
:10123000C068CDE90A2309910C9034A00068089099
:1012400033A3D3E901021968DB68CDE90623CDE9B0
:10125000041033A3D3E90021D3E90203CDE902034B
:10126000CDE900210E2119A800F0A4FC642000F0B3
:10127000CBFF2F210DA800F09DFC642000F0C4FFDF
:101280000F2109A800F096FC642000F0BDFF0421A6
:1012900008A800F08FFC642000F0B6FF0F2104A81E
:1012A00000F088FC642000F0AFFF0D21684600F0DC
:1012B00081FC642000F0A8FF1DB000BD41542B4309
:1012C00049504D55583D300D0A00000041542B4304
:1012D000495053544152543D22554450222C2231FE
:1012E00039322E3136382E3132332E3639222C36E1
:1012F0003330302C363330300D0A000041542B434C
:10130000495053454E443D310D0A0000540D0A002A
:1013100041542B4349504D4F44453D310D0A000087
:1013200041542B43495053454E440D0A00000000E0
:1013300000BFFEE77047000070B5002100230F22B8
:10134000C47804B3154C246804F4E064C4F5E06484
:10135000210AC1F10403CA40447804FA03F18478F5
:101360001440214309010E4C0678A155047804F07D
:101370001F050124AC4005786D11AD0005F1E02595
:10138000C5F8004109E0047804F01F050124AC40D1
:10139000044D0678761145F8264070BD0CED00E04E
:1013A00000E400E080E100E002490143024A1160EC
:1013B000704700000000FA050CED00E07FB505461F
:1013C0000D49C888FFF7A2F90C490988401A04B2F0
:1013D000ADF80640604200B2ADF80200ADF804403E
:1013E000604200B2ADF80000ADF80C400E22694634
:1013F0002846FEF7B9FE7FBD320000203E000020E7
:101400007047000001460020034A506820F4404025
:1014100008435060704700000010024029B1064A9E
:1014200052690243044B5A6104E0034A5269824301
:10143000014B5A61704700000010024029B1064A72
:10144000D2690243044BDA6104E0034AD269824361
:10145000014BDA61704700000010024029B1064AD2
:1014600092690243044B9A6104E0034A9269824301
:10147000014B9A61704700000010024010B5012135
:101480000420FFF7EBFF01210820FFF7E7FF012110
:101490001020FFF7E3FF01210802FFF7DFFF012122
:1014A0000846FFF7CBFF01218804FFF7C7FF10BDF7
:1014B00030B500210022002400232D4D6D6805F079
:1014C0000C0121B1042905D0082923D105E0294DBB
:1014D000056022E0274D05601FE0254D6D6805F48D
:1014E0007012234D6D6805F48034022505EB92429D
:1014F0001CB9214D554305600BE01D4D6D6805F489
:1015000000351DB11C4D5543056002E0194D554392
:10151000056002E0174D056000BF00BF144D6D6807
:1015200005F0F0010909154D6B5C0568DD4045606B
:101530000F4D6D6805F4E061090A104D6B5C45685C
:10154000DD4085600A4D6D6805F46051C90A0B4D98
:101550006B5C4568DD40C560054D6D6805F4404134
:10156000890B074D6B5CC568B5FBF3F5056130BDB4
:101570000010024000127A0000093D0048000020DF
:1015800058000020704710B500F002F810BD0000B0
:101590000CB50020019000903348006840F4803082
:1015A0003149086000BF3048006800F40030009006
:1015B0000198401C0190009818B90198B0F5A06FEF
:1015C000F1D12948006800F4003010B101200090EA
:1015D00001E0002000900098012843D123480068D2
:1015E00040F01000214908600846006820F0030020
:1015F00008600846006840F0020008601A48406829
:10160000194948600846406848600846406840F408
:10161000806048600846406820F47C1048600846B6
:10162000406840F4E81048600846006840F0807068
:10163000086000BF0C48006800F000700028F9D076
:101640000948406820F003000749486008464068A0
:1016500040F00200486000BF0348406800F00C0002
:101660000828F9D10CBD0000001002400020024003
:101670007047000010B51348006840F001001149A0
:10168000086008464068104908400E49486008460E
:1016900000680E4908400B4908600846006820F4BD
:1016A000802008600846406820F4FE0048604FF43F
:1016B0001F008860FFF767FF4FF000600449086073
:1016C00010BD0000001002400000FFF8FFFFF6FE12
:1016D00008ED00E010B588B001216F4800F0F5F882
:1016E00000287CD001216C4800F0E0F86846FFF744
:1016F000E8FA0E2269466948FEF736FD6748B0F9F8
:101700000600002803DD6548B0F9060003E06348E1
:10171000B0F906004042192835DA6048B0F90400F3
:10172000002803DD5D48B0F9040003E05B48B0F930
:1017300004004042192826DA5848B0F9020000286F
:1017400003DD5648B0F9020003E05448B0F9020046
:101750004042192817DA5148B0F90000002803DD8B
:101760004E48B0F9000003E04C48B0F90000404298
:10177000192808DA00204949C880888048800880F4
:101780004749086008E046480068042804DA4448ED
:101790000068401C4249086041480068032805DA97
:1017A00000203E49C8808880488008804FF4FE743D
:1017B00000200490059006900790FA208DF8100004
:1017C000AF208DF81100354880798DF8130033482B
:1017D000C088000A8DF812003048807800E059E097
:1017E0008DF815002D484088000A8DF814002B480C
:1017F00000798DF8170029488088000A8DF81600B6
:10180000264800788DF8190024480088000A8DF8D1
:1018100018009DF81A1023480068204041EA900003
:101820008DF81A001D48007A8DF81C001B480089AD
:10183000000A8DF81B001948807A8DF81E001748A1
:101840004089000A8DF81D00ED208DF81F004FF42F
:10185000807114480838FFF7CEFC30B1102104A87D
:1018600000F0A8F90020104908704FF480710D486D
:101870000838FFF7C0FC60B90B480078052808DC81
:10188000102104A800F096F907480078401C06498A
:10189000087000BF08B010BD0004004060000020C8
:1018A000040000200808014008000020CA4302820A
:1018B000704721B1028842F00102028004E00288F0
:1018C0004FF6FE731A400280704730B50246002082
:1018D00000230024158A05EA0103958905EA01041D
:1018E00013B10CB1012000E0002030BD1AB1838992
:1018F0000B43838102E083898B438381704700001F
:10190000002202881D4B98420ED01D4B98420BD0EE
:10191000B0F1804F08D01B4B984205D01A4B98422B
:1019200002D01A4B984204D14FF68F731A404B885D
:101930001A43174B984207D0164B984204D04FF6E3
:10194000FF431A40CB881A4302808B8883850B881B
:1019500003850A4B98420BD0094B984208D00E4B96
:10196000984205D00D4B984202D00D4B984201D1C0
:101970000B7A03860123838270470000002C01400C
:10198000003401400004004000080040000C00400A
:10199000001000400014004000400140004401409D
:1019A000004801401FB5044601210220FFF746FD13
:1019B000601E80B2ADF8080041F61F40ADF804008B
:1019C0000020ADF80A00ADF8060001A90D48FFF7A8
:1019D00097FF012241210B48FFF788FF1D208DF85A
:1019E000000000208DF8010003208DF80200012086
:1019F0008DF803006846FFF79FFC01210148FFF7BF
:101A000058FF1FBD0004004010B540F225513F486B
:101A100000F004F9002877D040F225513B4800F04F
:101A2000D5F83A4800F0B6F939493A4A127888545C
:101A300038480078401C374908703748007808B3A8
:101A400036480078F0B108460078401E3049085CFE
:101A5000ED2808D12F480078401E0F2803D101201F
:101A60002F49087035E02B480078401E0F2830DDE4
:101A700000202B490870294908702749087025491A
:101A8000087026E023480078401E2149085CFA28A7
:101A900006D12148007818B901201F49087018E0C4
:101AA0001C480078401E1A49085CAF280AD11A4821
:101AB0000078012806D11948007818B90120174983
:101AC000087006E000201549087013490870114994
:101AD000087013480078012816D100200D490870BD
:101AE0000F4908700D4908700B4908700848807844
:101AF0000C49086008460068000208600448C07885
:101B0000096808430749086010BD0000004800400C
:101B10008000002040000020410000204200002002
:101B2000430000204400002010B586B00446029413
:101B30000020ADF80C00ADF80E00ADF81000ADF8C7
:101B400014000C20ADF8120002A9114800F0B6F8FC
:101B5000012240F225510E4800F08AF801210C487C
:101B600000F043F84FF4A060FFF71EFC27208DF82B
:101B7000040003208DF8050002208DF806000120E6
:101B80008DF8070001A8FFF7D7FB06B010BD0000D5
:101B90000048004010B504462146054800F0FFF813
:101BA00000BF8021024800F02CF80028F9D010BDB9
:101BB0000048004070B505460E46002403E0285D4D
:101BC000FFF7E8FF641CB442F9D370BD10B50022E2
:101BD000002340F66A14A14200D100BF0A1201247A
:101BE0009440A3B2DC43048010BD21B1828942F449
:101BF0000052828104E082894DF6FF731A4082818F
:101C0000704702460020B1F5007F00D100BF138865
:101C10000B400BB1012000E00020704770B5024678
:101C2000002400230025002040F66A16B14200D1AE
:101C300000BFC1F3421501F01F03012606FA03F3AA
:101C4000012D02D19689334006E0022D02D1168A79
:101C5000334001E0968A33400C12012606FA04F460
:101C60001688344013B10CB1012000E0002070BD93
:101C7000F0B50346002400260025002040F66A1730
:101C8000B94200D100BF1846C1F3421401F01F064B
:101C9000012707FA06F5012C01D10C3004E0022CD3
:101CA00001D1103000E014301AB107682F430760EB
:101CB00002E00768AF430760F0BD00002DE9F04780
:101CC00086B005460E460024A24600BFA146002766
:101CD000B08900B100BF2F462C8A4CF6FF7004403B
:101CE000F08804432C82AC894EF6F3100440B0888F
:101CF00031890843718908430443AC81AC8A4FF6AB
:101D0000FF400440B0890443AC8201A8FFF7D0FB38
:101D10001F48874202D1DDF810A001E0DDF80CA0D9
:101D2000A88900F4004040B10AEBCA0000EB0A1099
:101D300031684900B0FBF1F807E00AEBCA0000EB9C
:101D40000A1031688900B0FBF1F86420B8FBF0F0AC
:101D500004012009642101FB1089A88900F40040D6
:101D600040B1322000EBC900B0FBF1F000F00700F9
:101D7000044308E0322000EB09106421B0FBF1F0CD
:101D800000F00F0004432C8106B0BDE8F08700008E
:101D90000038014001468888C0F308007047C1F34D
:101DA000080282807047000010B501210548FEF747
:101DB000C3FD30B101210348FEF76AFD012002494D
:101DC000087010BD006400401400002000B585B00C
:101DD00002217F48FEF7B0FD002839D002217C485F
:101DE000FEF756FD6A4600217948FEF735FE9DF85C
:101DF000080000282CD19DF808000028FAD19DF891
:101E00000A000828F6D100981B2822D19DF80C0062
:101E10009DF80B1040EA012000B26E4908809DF841
:101E20000E109DF80D0041EA002000B26A490880BA
:101E30009DF80F0001069DF8100041EA00419DF851
:101E4000110041EA00209DF8121008436349086020
:101E5000BCE000982B2822D19DF80C009DF80B10B7
:101E600040EA012000B25B4948809DF80E109DF8C1
:101E70000D0041EA002000B2574948809DF80F004C
:101E800001069DF8100041EA00419DF8110041EA69
:101E900000209DF8121008435049486096E00098D1
:101EA0003B2822D19DF80C009DF80B1040EA012040
:101EB00000B2484988809DF80E109DF80D0041EA57
:101EC000002000B2444988809DF80F0001069DF86B
:101ED000100041EA00419DF8110041EA00209DF800
:101EE000121008433D49886070E000984B2822D1C9
:101EF0009DF80C009DF80B1040EA012000B2354916
:101F0000C8809DF80E109DF80D0041EA002000B237
:101F10003149C8809DF80F0001069DF8100041EA84
:101F200000419DF8110041EA00209DF8121008437D
:101F30002A49C8604AE000981F2803D10120284997
:101F4000087043E000982F2803D1012024494870ED
:101F50003CE000983F2803D101202149887035E0FA
:101F600000984F2803D101201D49C8702EE0009829
:101F70001C2808D19DF80B001A4908709DF80C0028
:101F80001949087022E000982C2808D19DF80B0010
:101F9000144948709DF80C001349487016E00098E9
:101FA0003C2808D19DF80B000E4988709DF80C0064
:101FB0000D4988700AE000984C2807D19DF80B0065
:101FC0000849C8709DF80C000749C87005B000BDED
:101FD00000640040160000201E0000207000002059
:101FE000260000202A0000202E00002000BFFEE76F
:101FF0007FB505460C494888FEF788FB40420B49EF
:102000000988401A04B2ADF80640ADF80240ADF8B8
:102010000440ADF80040ADF808400E22694628465D
:10202000FEF7A2F87FBD0000320000203A00002039
:102030007FB505460D498888FEF768FB0C4909887D
:10204000401A04B2604200B2ADF80200ADF806409A
:10205000ADF80040604200B2ADF80400ADF80A40AF
:102060000E2269462846FEF77FF87FBD3200002029
:102070003C0000200FB4054B10B503A9044A029898
:1020800000F018F810BC5DF814FB0000592200089D
:102090005C00002002E008C8121F08C1002AFAD123
:1020A00070477047002001E001C1121F002AFBD1D8
:1020B000704700002DE9FF4F89B09B46044600257C
:1020C00006E025280BD05A460B999047641C6D1CDE
:1020D00020780028F5D10DB02846BDE8F08F002704
:1020E000B8460122474900E0074314F8013F203B6E
:1020F00002FA03F00842F7D120782E2819D114F8FB
:10210000010F47F004072A280ED06FF02F02207825
:10211000A0F1300109290CD808EB880102EB41013C
:1021200000EB0108641CF2E70A98641C50F8048B69
:102130000A9020780028CED0642808D0692806D0DC
:1021400075281ED05A460B9990476D1C58E00A9985
:102150004FF00A0901C90A91002802DA40422D21F4
:1021600002E0390504D52B218DF82010012103E070
:10217000F90704D02021F7E78A4608AE0DE00021D8
:10218000FAE70A994FF00A0901C90A91F7E74946A7
:10219000FEF741F9303106F8011D0028F7D1ADEB0B
:1021A000060000F12009780701D44FF00108C84566
:1021B00002DDA8EB090000E000208046002706E0D1
:1021C00008A85A46C05D0B9990476D1C7F1C574567
:1021D000F6DB04E030205A460B9990476D1CB8F1AD
:1021E0000001A8F10108F5DC05E016F8010B5A46DC
:1021F0000B9990476D1CB9F10001A9F10109F4DCBC
:10220000641C65E70928010070B5044624B921461D
:1022100008A0FFF72FFF70BD002507E042F63C0045
:1022200000BF011EA0F10100FBD16D1CA542F5D33A
:1022300000BFF0E744656C6179204572726F7220CF
:102240000D0A2044656C617954696D6520697320BD
:102250002564200D0A00000070B504460D4600BF3D
:1022600040210948FFF7CDFC0128F9D1E1B2064829
:10227000FFF795FD00BF40210348FFF7C2FC01288E
:10228000F9D1204670BD0000003801401FB5FFF7AE
:10229000F5F84FF4A060FFF787F8FEF7C9FE4FF49A
:1022A00000510F48FEF7B0FF4FF4E130FFF73CFC60
:1022B00000F01AF8FEF74AFD4FF47A70FFF7A4FF1A
:1022C000FEF7A6FF6846FEF7FCFC0E2269460548AD
:1022D000FDF74AFF4FF48C70FFF764FB00BFFEE789
:1022E000002001406000002000B585B0012144F2CB
:1022F0001400FFF7B3F84FF40070ADF81000182089
:102300008DF8130003208DF8120004A91348FEF77E
:10231000E7FE4FF48060ADF8100004208DF8130044
:1023200004A90E48FEF7DCFE4FF4E13000900020D7
:10233000ADF80400ADF80600ADF80800ADF80C00EB
:102340000C20ADF80A0069460548FFF7B7FC0121EB
:102350000348FFF74AFC05B000BD0000000801403B
:1023600000380140842300080000002060000000C5
:1023700094200008E42300086000002030040000DE
:10238000A4200008881300000000000000000000E6
:10239000000000000000000000000000000000003D
:1023A000000000000000000000000000000000002D
:1023B000000000000000000000000000000000001D
:1023C000000000000000000000000000000000000D
:1023D00001020304010203040607080902040608B7
:0423E00000000000F9
:0400000508000131BD
:00000001FF
