:020000040800F2
:10000000C0040020450100086115000865140008BF
:100010005D150008110700082D26000800000000EB
:10002000000000000000000000000000551700085C
:100030006D11000800000000E915000841180008D3
:100040005F0100085F0100085F0100085F01000810
:100050005F0100085F0100085F0100085F01000800
:100060005F0100085F0100085F0100085F010008F0
:100070005F0100085F0100085F0100085F010008E0
:100080005F0100085F0100085F010008E923000824
:100090000D2400085F0100085F0100085F010008EF
:1000A0005F0100085F0100085F0100085F010008B0
:1000B0005F010008A51800085F0100085F01000843
:1000C0005F0100085F0100085F0100085F01000890
:1000D0005F0100085F0100085F010008951F00082C
:1000E0005F0100085F0100085F0100085F01000870
:1000F0005F0100085F0100085F0100085F01000860
:100100005F0100085F010008FD1B00085F01000897
:100110005F0100085F0100085F0100085F0100083F
:100120005F0100085F0100085F0100085F0100082F
:10013000DFF80CD000F0B2FA004800473D3200086A
:10014000C00400200648804706480047FEE7FEE757
:10015000FEE7FEE7FEE7FEE7FEE7FEE7FEE7FEE777
:10016000451800083101000840EA01039B0703D04D
:1001700009E008C9121F08C0042AFAD203E011F8E6
:10018000013B00F8013B521EF9D270472DE9FE4FAA
:10019000804681EA0300C00F0C46009021F0004128
:1001A00023F00045B8EB0200A94105D240462146A4
:1001B00090461C460B46024623F00040104347D0B1
:1001C000270DC7F30A00C3F30A510290401A0190A9
:1001D00040286BDAC3F3130040F4801B009892466A
:1001E00020B10023D2EB030A63EB0B0B01985946B5
:1001F000C0F14002504600F0C3F906460D46504695
:100200005946019A00F0DBF910EB08006141002427
:1002100087EA115284EAE7731A4340D0009A62B326
:10022000019A012A4FEA075215DC001B61EB02011B
:100230004FF0004202EA0752CDE90042001C41F5AE
:10024000801132462B4600F0DBF903B0BDE8F08F99
:1002500040462146F9E7001B61EB0201001C41F515
:10026000801300185B412018A2F5001747EB03012B
:1002700040EAD570B6196D4111E06D084FEA3606B7
:1002800045EAC0754FEA0752001B61EB0201001CF2
:1002900041F5801149084FEA3000001951413246BA
:1002A0002B4603B0BDE8F04F00F09BB90098012247
:1002B00040000023D0EB020263EBE073009821467C
:1002C0004FEAE074B8EB000061EB0401E9E783F06A
:1002D00000435BE781F0004158E72DE9FE4F81EADA
:1002E000030404F0004421F0004100944FF0000B9F
:1002F00023F0004350EA01045ED052EA03045BD0CD
:10030000C3F30A54C1F30A552C44A4F2F334019404
:10031000A0FB0254C1F3130141F48011C3F3130392
:1003200043F4801301FB024400FB034E840A970A46
:1003300044EA815447EA8357A4FB076802958D0A73
:1003400005FB07854FEA932C04FB0C542705029DFF
:100350004FEA065847EA1637B5EB08056EEB070C6F
:10036000870E920E47EA811742EA8312A7FB020129
:10037000B6EB0B0164EB00042B0D43EA0C335E1863
:1003800044EB1C50DA465146E7FB0201C5F3130467
:100390004FEA0B3343EA14534FEA0432019C43EA19
:1003A0000603A4F10C040294009CCDE900B400F013
:1003B00027F903B0BDE8F08F00200146F9E72DE9E9
:1003C000F04D81EA030404F0004B21F0004514468F
:1003D0004FF0000A23F0004150EA050220D054EA11
:1003E00001021DD0C5F30A570246C5F31303C1F33A
:1003F0001300C1F30A5640F4801543F48013A7EBB1
:100400000608101BD64608F2FD3873EB050002D330
:1004100008F1010801E092185B41B8F1000F03DA1E
:1004200000200146BDE8F08D00204FF48011064603
:1004300084460EE0171B73EB050705D3121B63EB15
:10044000050306434CEA010C49084FEA30009218B4
:100450005B4150EA0107EDD152EA030012D082EA73
:10046000040083EA0501084305D0101BAB4106D206
:100470000122002306E000224FF0004302E06FF06B
:10048000010253101AEB06004CEB085110EB0A0066
:1004900041EB0B01BDE8F04D00F0A3B80EB540F202
:1004A000334102910021CDE900110A460B4600F0CC
:1004B000A7F803B000BD70B5C1F30A5201F00045C2
:1004C0000024C1F3130140F2FF3341F480119A423A
:1004D00001DA002070BD40F233439A42A2F2334267
:1004E00003DC524200F05BF800E090402C43F1D076
:1004F000404270BD30B5041E71F1000404DB4FF0C2
:100500000044404264EB0101141E73F1000405DB5A
:100510001C464FF00043524263EB04038B4208BF7A
:10052000824230BD30B5041E71F1000404DB4FF08F
:100530000044404264EB0101141E73F1000405DB2A
:100540001C464FF00043524263EB0403994208BF3C
:10055000904230BD30B50B460146002020220124D8
:1005600009E021FA02F59D4205D303FA02F5491B81
:1005700004FA02F52844151EA2F10102F1DC30BD97
:10058000202A04DB203A00FA02F100207047914053
:10059000C2F1200320FA03F3194390407047202A48
:1005A00004DB203A21FA02F00021704721FA02F31D
:1005B000D040C2F120029140084319467047202ADA
:1005C00006DBCB17203A41FA02F043EAE07306E07B
:1005D00041FA02F3D040C2F120029140084319468B
:1005E000704710B5141E73F1000408DA401C41F185
:1005F000000192185B411A4301D120F0010010BDA7
:100600002DE9F04D92469B4611B1B1FA81F202E01C
:10061000B0FA80F220329046FFF7B2FF04460F4650
:1006200040EA0A0041EA0B0153465A46084313D0F8
:10063000114653EA010019D0C8F140025046FFF7B5
:10064000AEFF05460E46504659464246FFF798FF14
:10065000084305D0012004E020463946BDE8F08D6E
:100660000020054346EAE0762C4337430A986305A9
:10067000E40AA0EB08000022FD0A44EA47540A30CD
:1006800002D500200146E9E7010510196941DDE9BD
:10069000084500196941BDE8F04DA2E7064C074D39
:1006A00006E0E06840F0010394E807009847103442
:1006B000AC42F6D3FFF740FD6039000880390008EE
:1006C00070B521F0004303430CD0C1F30A55002458
:1006D000D5EB040564EB0403D617AD1AB34102DB76
:1006E0000020014670BD201841EB025170BD0EB5CF
:1006F000C10F80EAE0700844CA07002140F233438A
:100700008DE80E000A460B46FFF77AFF03B000BDE6
:1007100000BFFEE700B589B00121480600F066FF82
:100720000121092000F082FF01214FF4EA1000F0BE
:1007300025FE4FF48070ADF8040048208DF80700C6
:1007400003208DF8060001A93A4800F08BFD4FF414
:100750000070ADF8040018208DF8070003208DF814
:10076000060001A9334800F07DFD13208DF800003C
:1007700001208DF8010000208DF8020001208DF885
:100780000300684600F0EEFE14208DF80000002003
:100790008DF801008DF8020001208DF803006846F5
:1007A00000F0E0FE244800F09DF800208DF81E00C7
:1007B0008DF81F008DF820008DF821008DF82200A3
:1007C00001208DF8230000208DF81A008DF81B0001
:1007D00004208DF81C0002208DF81D000420ADF8C7
:1007E000180006A9144800F0C4F900208DF8120082
:1007F0008DF8130001208DF814000020ADF80800DA
:10080000ADF80A00ADF80C00ADF80E00ADF8100020
:1008100001208DF8150002A800F08EF801220221B7
:10082000054800F09DF901221146034800F098F9AF
:1008300009B000BD000C014000640040B1F5007F2C
:100840003AD00FDC202928D006DC01291CD004294D
:100850001DD0082940D11DE0402921D0B1F5807F6D
:100860003AD126E0B1F5004F31D006DCB1F5806F0A
:1008700025D0B1F5006F2FD124E0B1F5803F12D023
:10088000B1F5003F28D111E0154A826025E0082229
:10089000C26022E01022C2601FE0082202611CE058
:1008A0001022026119E00822426016E01022426024
:1008B00013E00422426010E0042242600DE00422B2
:1008C00042600AE0002282610422426005E00022C8
:1008D00082610422426000E000BF00BF7047000058
:1008E0000101010010B504460B48844209D10121E1
:1008F000480600F08BFE00214FF0007000F086FEED
:1009000008E00121880600F081FE00214FF08060A0
:1009100000F07CFE10BD00000064004010B5002116
:1009200006E0092200BF131EA2F10102FBD1491CFF
:100930008142F6D310BD000010B50021837A012258
:1009400002FA03F13D4A126842F001023B4B1A6081
:100950003A4A1C3212688A43384B1C331A60027BB5
:10096000CAB9364A0C3212688A43344B0C331A60C7
:100970004288C38842EA0343304A4032847A42F8CC
:1009800034300288838842EA03432C4A4032847A16
:1009900002EBC4025360027B012A19D1274A0C32B0
:1009A00012680A43254B0C331A604288038842EAD6
:1009B0000343224A4032847A42F83430C288838822
:1009C00042EA03431D4A4032847A02EBC402536078
:1009D000C27A3AB9194A121D12688A43174B1B1D75
:1009E0001A6006E0154A121D12680A43134B1B1DBC
:1009F0001A60028932B9114A143212688A430F4BC5
:100A000014331A600289012A06D10C4A1432126882
:100A10000A430A4B14331A60427B012A06D1074A63
:100A20001C3212680A43054B1C331A60034A1268D1
:100A300022F00102014B1A6010BD00000066004068
:100A400070B504460D46002660692840002871D024
:100A5000B5F5807F5CD010DC082D35D006DC012D8B
:100A600020D0022D24D0042D72D127E0102D31D0BA
:100A7000202D35D0402D6BD138E0B5F5004F60D03A
:100A800009DCB5F5007F49D0B5F5806F4CD0B5F5E0
:100A9000006F5DD14FE0B5F5803F2DD0B5F5003F3B
:100AA00056D12FE0A0682D4900F057FB064651E0D3
:100AB000E068032100F051FB06464BE0E0680821A6
:100AC00000F04BFB064645E0E068102100F045FBD6
:100AD00006463FE02069032100F03FFB064639E06F
:100AE0002069082100F039FB064633E02069102117
:100AF00000F033FB06462DE06068082100F02DFB76
:100B0000064627E06068102100F027FB064621E03A
:100B1000A069012100F021FB06461BE0A06902212B
:100B200000F01BFB064615E0A069042100F015FB50
:100B300006460FE00FE0A069702100F00EFB0646AC
:100B400008E06068042100F008FB064602E0FFE7C9
:100B5000002600BF00E00026304670BD0101010004
:100B60001AB143690B43436102E043698B4343611C
:100B7000704730B5024600200023146824F00204B8
:100B80001460146844F00104146000E05B1C5468B5
:100B900004F001041CB94FF6FF74A342F6D1546867
:100BA00004F001040CB900206CE08C79012C04D114
:100BB000146844F08004146003E0146824F0800496
:100BC0001460CC79012C04D1146844F04004146002
:100BD00003E0146824F0400414600C7A012C04D162
:100BE000146844F02004146003E0146824F0200426
:100BF00014604C7A012C04D1146844F01004146081
:100C000003E0146824F0100414608C7A012C04D1E1
:100C1000146844F00804146003E0146824F0080425
:100C20001460CC7A012C04D1146844F004041460DC
:100C300003E0146824F0040414608C78A407CD78D1
:100C400044EA05640D7944EA05444D7944EA0554C3
:100C50000D886D1E2C43D461146824F001041460C7
:100C6000002300E05B1C546804F001041CB14FF643
:100C7000FF74A342F6D1546804F001040CB10020C3
:100C800000E0012030BD10B500F5D87303EB01136F
:100C90001B6803F004031372137A53B900F5D87379
:100CA00003EB01131B6840F2FF7404EA5353136013
:100CB00009E000F5D87303EB01131B686FF0604483
:100CC00004EAD303536000F5D87303EB01131B68E8
:100CD00003F00203537200F5D87303EB01135B6852
:100CE00003F00F03937200F5D87303EB01135B68F5
:100CF0001B0AD37400F5D87303EB01139B68D372FE
:100D000000F5D87303EB01139B681C0A147300F5FC
:100D1000D87303EB01139B681C0C547300F5D87354
:100D200003EB01139B681B0E937300F5D87303EB61
:100D30000113DB68D37300F5D87303EB0113DB6891
:100D40001C0A147400F5D87303EB0113DB681C0C48
:100D5000547400F5D87303EB0113DB681B0E937416
:100D600021B9C36843F02003C36003E0036943F083
:100D70002003036110BD00002DE9F04186B0044658
:100D80000D46174698460A2600208DF80C008DF86F
:100D90000D0008208DF80E00072C06DC0F2D04DC5A
:100DA00046EA042646EA051602E006B0BDE8F081F0
:100DB00001968DF80F708DF8108055218DF8111067
:100DC0008DF812108DF813108DF814108DF8151081
:100DD0008DF8161000200F49087001A90E4800F088
:100DE00029F900200D4908600CE00120FFF796FD6D
:100DF0000A480068401C09490860084600686428E1
:100E000000D903E0034800780028EED000BF00BFFF
:100E1000CBE70000480000200064004044000020B0
:100E2000F0B585B004460D461746012600208DF822
:100E300008008DF8090008208DF80A00072C06DC50
:100E40000F2D04DC46EA042646EA051601E005B04B
:100E5000F0BD00968DF80B7055218DF80C108DF8B3
:100E60000D108DF80E108DF80F108DF810108DF8F4
:100E700011108DF8121000200E49087069460E48B6
:100E800000F0D8F800200D4908600CE00120FFF7C1
:100E900045FD0A480068401C08490860084600688B
:100EA000642800D903E0034800780028EED000BF92
:100EB00000BFCCE748000020006400404400002050
:100EC00070B586B004460D46002600208DF80C0053
:100ED0008DF80D0008208DF80E00072C06DC0F2D74
:100EE00004DC46EA042646EA051601E006B070BDB9
:100EF000019655208DF80F0055218DF810108DF8B2
:100F000011108DF812108DF813108DF814108DF843
:100F100015108DF8161000200E49087001A90E4812
:100F200000F088F800200D4908600CE00120FFF770
:100F3000F5FC0A480068401C08490860084600683B
:100F4000642800D903E0034800780028EED000BFF1
:100F500000BFCBE7480000200064004044000020B0
:100F60002DE9F04186B005460E4614461F464FF067
:100F7000040800208DF80C008DF80D0008208DF875
:100F80000E00072D06DC0F2E04DC48EA052848EA8F
:100F9000061802E006B0BDE8F081CDF8048041F209
:100FA0008830844201DD044603E01E48844200DAB2
:100FB0000446002C04DA01DD204600E0604204B261
:100FC000200A8DF80F008DF81040390A8DF81110A5
:100FD0008DF8127055218DF813108DF814108DF8BE
:100FE00015108DF8161000200F49087001A90F4840
:100FF00000F020F800200E4908600CE00120FFF707
:101000008DFC0B480068401C0949086008460068D0
:10101000642800D903E0044800780028EED000BF1F
:1010200000BFB7E778ECFFFF4800002000640040F5
:101030004400002010B502460020936803F080634E
:10104000B3F1806F00D110E0936803F00063B3F157
:10105000006F01D1012008E0936803F08053B3F1E1
:10106000805F01D1022000E00420042874D002F542
:10107000C07303EB00131B6803F0010402F5C07397
:1010800003EB00131C600B7A7BB94B7A0C8843EAA4
:10109000445302F5C07404EB00142468234302F5A2
:1010A000C07404EB0014236010E00B7A4C6843EA30
:1010B000C4034C7A234302F5C07404EB0014246883
:1010C000234302F5C07404EB001423608B7A03F011
:1010D0000F038B7202F5C07303EB00135B6823F000
:1010E0000F0402F5C07303EB00135C6002F5C073DC
:1010F00003EB00135B688C7A234302F5C07404EBA6
:10110000001463608B7B1C064B7B44EA03440B7B1F
:1011100044EA0323CC7A234302F5C07404EB0014A1
:10112000A3608B7C1C064B7C44EA03440B7C44EAA2
:101130000323CC7B234302F5C07404EB0014E3606B
:1011400002F5C07303EB00131B6843F0010402F5C2
:10115000C07303EB00131C6010BD0246002002EABE
:1011600001030BB1012000E0002070477047000030
:1011700008B54FF47040ADF8000003208DF8020070
:1011800010208DF803006946324800F06BF84FF4E8
:101190008051304800F045F94FF400512D4800F0DF
:1011A00040F94FF480412B4800F03BF94FF40041E7
:1011B000284800F036F90020ADF800004FF49650B2
:1011C000ADF800006946244800F04CF80020ADF866
:1011D00000004FF40050ADF8000069461F4800F0D1
:1011E00041F80020ADF800004FF4F870ADF80000B1
:1011F00048208DF803006946194800F033F80020B4
:10120000ADF800004FF40140ADF8000048208DF823
:1012100003006946114800F025F80020ADF80000F1
:101220004FF48060ADF8000018208DF80300694687
:10123000084800F017F80020ADF800004FF40060F7
:10124000ADF8000004208DF803006946014800F065
:1012500009F808BD000C01400010014000200140C9
:10126000000801402DE9F04102460025002600203B
:1012700000230024002791F803C00CF00F0591F81B
:1012800003C00CF0100CBCF1000F03D091F802C0A9
:101290004CEA050591F800C0BCF1000F31D014688C
:1012A00000202BE04FF0010C0CFA00F3B1F800C065
:1012B0000CEA03069E4220D183004FF00F0C0CFA7B
:1012C00003F7BC4305FA03FC4CEA040491F803C09D
:1012D000BCF1280F06D14FF0010C0CFA00FCC2F84B
:1012E00014C00AE091F803C0BCF1480F05D14FF0DB
:1012F000010C0CFA00FCC2F810C0401C0828D1D325
:101300001460B1F800C0BCF1FF0F34DD5468002058
:101310002EE000F1080C4FF0010808FA0CF3B1F8C8
:1013200000C00CEA03069E4221D183004FF00F0C4F
:101330000CFA03F7BC4305FA03FC4CEA040491F8E9
:1013400003C0BCF1280F05D100F1080C08FA0CF815
:10135000C2F8148091F803C0BCF1480F07D100F126
:10136000080C4FF0010808FA0CF8C2F81080401C75
:101370000828CED35460BDE8F0810000F0B50A46DD
:10138000002300240021002500F00046B6F1004FA4
:1013900002D11D4EF16901E01B4E7168C0F3034597
:1013A00083B200F44016B6F5401F08D121F07061F9
:1013B000154E766826F07066134F7E6012E000F4DA
:1013C0008016B6F5801F06D1032606FA05F4A14360
:1013D00041F0706106E0460D360103FA06F6B143AE
:1013E00041F0706122B1460D360103FA06F6314331
:1013F00000F00046B6F1004F02D1034EF16101E06A
:10140000014E7160F0BD0000000001400246002066
:1014100093680B400BB1012000E000207047416150
:10142000704701617047000010B50446072C04DDC9
:1014300007A001F047FA002010BD0948807A012179
:10144000A140084008B10120F6E70020F4E70000C1
:101450004765745F494F5F4572726F72000000000C
:10146000B000002000BFFEE700B59BB021A0D0E98E
:1014700001320168C068CDE9183217911A90342200
:1014800020A10AA8FEF770FE2BA30FCBCDE90823FD
:10149000CDE906012CA0006805902CA30FCBCDE967
:1014A0000323CDE901010E2117A800F0A3FEC820F7
:1014B00001F05AFE32210AA800F09CFE4FF4FA70A7
:1014C00001F052FE0F2106A800F094FEC82001F0A2
:1014D0004BFE042105A800F08DFEC82001F044FE5B
:1014E0000F2101A800F086FEC82001F03DFE1BB0D0
:1014F00000BD000041542B4349504D55583D300D1F
:101500000A00000041542B43495053544152543D6A
:1015100022554450222C223139322E3136382E3188
:1015200032332E313639222C363330302C363330AC
:10153000302C300D0A00000041542B4349505345D4
:101540004E443D310D0A0000410D0A0041542B4329
:1015500049504D4F44453D310D0A000000BFFEE7A4
:101560007047000070B5002100230F22C47804B337
:10157000154C246804F4E064C4F5E064210AC1F168
:101580000403CA40447804FA03F1847814402143E8
:1015900009010E4C0678A155047804F01F050124BA
:1015A000AC4005786D11AD0005F1E025C5F80041AE
:1015B00009E0047804F01F050124AC40044D0678CE
:1015C000761145F8264070BD0CED00E000E400E027
:1015D00080E100E002490143024A116070470000C7
:1015E0000000FA050CED00E07047000029B1064A42
:1015F000D2690243044BDA6104E0034AD2698243B0
:10160000014BDA61704700000010024029B1064A20
:1016100012690243044B1A6104E0034A12698243CF
:10162000014B1A61704700000010024029B1064AC0
:1016300092690243044B9A6104E0034A926982432F
:10164000014B9A61704700000010024010B5012163
:101650000420FFF7EBFF01210820FFF7E7FF01213E
:101660001020FFF7E3FF01210802FFF7DFFF012150
:101670000846FFF7BBFF01218804FFF7B7FF10BD45
:1016800030B500210022002400232D4D6D6805F0A7
:101690000C0121B1042905D0082923D105E0294DE9
:1016A000056022E0274D05601FE0254D6D6805F4BB
:1016B0007012234D6D6805F48034022505EB9242CB
:1016C0001CB9214D554305600BE01D4D6D6805F4B7
:1016D00000351DB11C4D5543056002E0194D5543C1
:1016E000056002E0174D056000BF00BF144D6D6836
:1016F00005F0F0010909154D6B5C0568DD4045609A
:101700000F4D6D6805F4E061090A104D6B5C45688A
:10171000DD4085600A4D6D6805F46051C90A0B4DC6
:101720006B5C4568DD40C560054D6D6805F4404162
:10173000890B074D6B5CC568B5FBF3F5056130BDE2
:101740000010024000127A0000093D006B000020EA
:101750007B000020704710B500F002F810BD0000BB
:101760000CB50020019000903348006840F48030B0
:101770003149086000BF3048006800F40030009034
:101780000198401C0190009818B90198B0F5A06F1D
:10179000F1D12948006800F4003010B10120009018
:1017A00001E0002000900098012843D12348006800
:1017B00040F01000214908600846006820F003004E
:1017C00008600846006840F0020008601A48406857
:1017D000194948600846406848600846406840F437
:1017E000806048600846406820F47C1048600846E5
:1017F000406840F4E81048600846006840F0807097
:10180000086000BF0C48006800F000700028F9D0A4
:101810000948406820F003000749486008464068CE
:1018200040F00200486000BF0348406800F00C0030
:101830000828F9D10CBD0000001002400020024031
:101840007047000010B51348006840F001001149CE
:10185000086008464068104908400E49486008463C
:1018600000680E4908400B4908600846006820F4EB
:10187000802008600846406820F4FE0048604FF46D
:101880001F008860FFF767FF4FF0006004490860A1
:1018900010BD0000001002400000FFF8FFFFF6FE40
:1018A00008ED00E02DE9F04F87B00121C14800F0BC
:1018B000A0FA002870D00121BE4800F08BFABE4883
:1018C0000078012868D10620FFF7AEFD0028F9D185
:1018D000BA4800780028EDD00022B94BB94903C9B5
:1018E000FEF708FE07D20022B74BB64903C9FEF740
:1018F0004DFCB44A03C2B548B5490CC803C9FEF74C
:10190000F9FD38D200221346B14903C9FEF70AFE99
:1019100002D2AF4903C903E0AD4903C981F00041D8
:1019200004460022AB4BFEF7E5FD13D3002213461D
:10193000A74903C9FEF7F6FD02D2A54903C903E092
:10194000A34903C981F0004104460022A24BFEF7DF
:10195000E9FD08D20022A14B9D4903C9FEF716FC00
:101960009B4A03C207E000229D4B994903C9FEF739
:101970000DFC974A03C2954895490CC803C9FEF768
:10198000D1FD39D200221346914903C9FEF7CAFDA1
:1019900003D28F4903C904E009E18D4903C981F0ED
:1019A0000041044600228B4BFEF7A4FD13D3002216
:1019B0001346874903C9FEF7B5FD02D2844903C91E
:1019C00003E0834903C981F0004104460022824BB1
:1019D000FEF7A8FD08D20022804B7D4903C9FEF71F
:1019E00076FC7B4A03C207E000227D4B784903C99D
:1019F000FEF76DFC764A03C200221346744903C900
:101A0000FEF790FD02D2724903C903E0704903C991
:101A100081F00041044600226E4BFEF76BFD13D3AC
:101A2000002213466A4903C9FEF77CFD02D26849C9
:101A300003C903E0664903C981F00041044600225E
:101A4000654BFEF76FFD3CD2664A674B604903C9A0
:101A5000FEF743FC82460022644BFEF7B0FC804652
:101A600001F09EFE064657480CC83046FEF735FC8E
:101A70000446FEF720FD5B4A5B4B5549039003C9C2
:101A8000FEF72BFC80460022584BFEF798FC82465E
:101A900001F01CFB06464B480CC83046FEF71DFC07
:101AA0000446FEF708FD0290014604A8039A00F0E0
:101AB000D3FD4F4804990160059941600699816002
:101AC0004BE0484A484B424903C9FEF706FC002256
:101AD000464BCDE90001FEF772FC064601F060FEC0
:101AE00004460D460022434B364903C9FEF74EFB20
:101AF000804622462B46FEF7F0FB8246FEF7DBFCD3
:101B0000384A394B3249039003C9FEF7E6FB0646D3
:101B10000022364BFEF753FCCDE9000101F0D6FA66
:101B200004460D460022334B264903C9FEF72EFB1F
:101B3000804622462B46FEF7D0FB8246FEF7BBFCD2
:101B40000290014604A8039A00F086FD28480499F3
:101B5000016005994160069981602548B0F902301D
:101B60002548B0F9002001210020FFF7F9F92048AD
:101B7000C088404203B22048B0F900200221002072
:101B8000FFF7EEF91A488088404203B21A48B0F9CC
:101B9000002003210020FFF7E3F91548B0F90030D9
:101BA0001548B0F9002004210020FFF7D9F907B04B
:101BB000BDE8F08F00040040020000206A00002011
:101BC000007097403000002000C042400800002014
:101BD000100000200080364000E050400000084027
:101BE0000000F03F4AD8124DFB21094000806640BA
:101BF0008800002000407F400000002010B5012137
:101C00006B4800F0F6F8002879D00121684800F010
:101C1000E1F868480078012871D167480078002809
:101C2000F2D066480068052848DC6548006840F640
:101C30003C7188421FDC0520FFF7F6FBD8B18021FC
:101C40006048FFF7ECFB6048007838B940215D48F8
:101C5000FFF7E7FB01205C4908702FE0402159485D
:101C6000FFF7DDFB56480068401C5549086000201E
:101C70005549087022E05248006801281EDB052003
:101C8000FFF7D2FBD0B980214E48FFF7CAFB4E4880
:101C9000007838B940214B48FFF7C3FB01204A497F
:101CA00008700BE040214748FFF7B9FB4448006843
:101CB000401E4349086000204349087040480068BE
:101CC00040F6C55188424FDB3C48006841F28241F2
:101CD000884223DC0420FFF7A7FBF8B14FF48051C2
:101CE0003848FFF79EFB3948007848B94FF4007137
:101CF0003448FFF796FB01203449087034E055E082
:101D00004FF400712F48FFF78AFB2C480068401CF5
:101D10002A49086000202D49087025E027480068FE
:101D2000012821DB0420FFF77FFBE8B94FF4805145
:101D30002448FFF774FB2548007840B94FF4007140
:101D40002048FFF76EFB0120204908700CE04FF49B
:101D500000711C48FFF763FB18480068401E1749D4
:101D600008600020194908701548006840F63C7169
:101D700088421BDB4FF480711548FFF747FBA8B181
:101D800080211048FFF74BFB0F48007838B94021FD
:101D90000C48FFF746FB01200B49087006E0402184
:101DA0000848FFF73CFB00200749087010BD000001
:101DB000000C0040020000206A00002020000020EB
:101DC0001C00002000100140180000201900002015
:101DD00000080140CA430282704721B1028842F0E4
:101DE0000102028004E002884FF6FE731A4002806E
:101DF000704730B50246002000230024158A05EA0A
:101E00000103958905EA010413B10CB1012000E03A
:101E1000002030BD1AB183890B43838102E083899E
:101E20008B43838170470000002202881D4B98423B
:101E30000ED01D4B98420BD0B0F1804F08D01B4BF9
:101E4000984205D01A4B984202D01A4B984204D1BE
:101E50004FF68F731A404B881A43174B984207D09E
:101E6000164B984204D04FF6FF431A40CB881A43D2
:101E700002808B8883850B8803850A4B98420BD0A0
:101E8000094B984208D00E4B984205D00D4B984212
:101E900002D00D4B984201D10B7A03860123838235
:101EA00070470000002C0140003401400004004055
:101EB00000080040000C00400010004000140040EA
:101EC0000040014000440140004801401FB5044665
:101ED00001210220FFF78AFB601E80B2ADF80800E6
:101EE00041F61F40ADF804000020ADF80A00ADF83F
:101EF000060001A90D48FFF797FF012241210B4879
:101F0000FFF788FF1D208DF8000000208DF80100EC
:101F100004208DF8020001208DF803006846FFF7C9
:101F200021FB01210148FFF758FF1FBD00040040BD
:101F30001FB5044601210820FFF758FB601E80B240
:101F4000ADF8080041F61F40ADF804000020ADF8E0
:101F50000A00ADF8060001A90D48FFF765FF012250
:101F600041210B48FFF756FF32208DF8000000207A
:101F70008DF8010003208DF8020001208DF8030088
:101F80006846FFF7EFFA01210148FFF726FF1FBD62
:101F9000000C004010B540F225516B4800F05EF98E
:101FA00000287DD040F22551674800F02FF966489F
:101FB00000F010FA6549664A12788854644800783F
:101FC000401C634908706348007808B36248007891
:101FD000F0B108460078401E5C49085CED2808D145
:101FE0005B480078401E0F2803D101205B49087030
:101FF00035E057480078401E0F2830DD0020574953
:10200000087055490870534908705149087026E016
:102010004F480078401E4D49085CFA2806D14D48CB
:10202000007818B901204B49087018E0484800783A
:10203000401E4649085CAF280AD14648007801286E
:1020400006D14548007818B901204349087006E0D8
:102050000020414908703F4908703D4908703F48D9
:10206000007801286ED10020394908703B4908707A
:102070003949087037490870344880783849C88031
:1020800008468079000200B2C8800846B0F9060010
:102090002E49C97808433249C8802C48007900E0AD
:1020A00050E0488008468078000200B24880084628
:1020B000B0F9020025494979084329494880234855
:1020C0008079888008460079000200B2888008463E
:1020D000B0F904001D49C9790843214988801B488B
:1020E000007A088008460078000200B2088008469E
:1020F000B0F900001549497A084319490880134886
:10210000C07A08810846007A000200B208810846B9
:10211000B0F908000D49097B0843114908810B48B3
:10212000407B48810846807A000200B24881084618
:10213000B0F90A000549897B084309494881012013
:102140000849087010BD000000480040B0000020A1
:102150006600002067000020680000206900002061
:10216000A40000206A00002010B586B00446029446
:102170000020ADF80C00ADF80E00ADF81000ADF881
:1021800014000C20ADF8120002A9114800F0B6F8B6
:10219000012240F225510E4800F08AF801210C4836
:1021A00000F043F84FF4A060FFF714FA27208DF8F1
:1021B000040003208DF8050002208DF806000120A0
:1021C0008DF8070001A8FFF7CDF906B010BD00009B
:1021D0000048004010B504462146054800F0FFF8CD
:1021E00000BF8021024800F02CF80028F9D010BD73
:1021F0000048004070B505460E46002403E0285D07
:10220000FFF7E8FF641CB442F9D370BD10B500229B
:10221000002340F66A14A14200D100BF0A12012433
:102220009440A3B2DC43048010BD21B1828942F402
:102230000052828104E082894DF6FF731A40828148
:10224000704702460020B1F5007F00D100BF13881F
:102250000B400BB1012000E00020704770B5024632
:10226000002400230025002040F66A16B14200D168
:1022700000BFC1F3421501F01F03012606FA03F364
:10228000012D02D19689334006E0022D02D1168A33
:10229000334001E0968A33400C12012606FA04F41A
:1022A0001688344013B10CB1012000E0002070BD4D
:1022B000F0B50346002400260025002040F66A17EA
:1022C000B94200D100BF1846C1F3421401F01F0605
:1022D000012707FA06F5012C01D10C3004E0022C8D
:1022E00001D1103000E014301AB107682F430760A5
:1022F00002E00768AF430760F0BD00002DE9F0473A
:1023000086B005460E460024A24600BFA14600271F
:10231000B08900B100BF2F462C8A4CF6FF700440F4
:10232000F08804432C82AC894EF6F3100440B08848
:1023300031890843718908430443AC81AC8A4FF664
:10234000FF400440B0890443AC8201A8FFF798F92C
:102350001F48874202D1DDF810A001E0DDF80CA093
:10236000A88900F4004040B10AEBCA0000EB0A1053
:1023700031684900B0FBF1F807E00AEBCA0000EB56
:102380000A1031688900B0FBF1F86420B8FBF0F066
:1023900004012009642101FB1089A88900F4004090
:1023A00040B1322000EBC900B0FBF1F000F00700B3
:1023B000044308E0322000EB09106421B0FBF1F087
:1023C00000F00F0004432C8106B0BDE8F087000048
:1023D0000038014001468888C0F308007047C1F307
:1023E000080282807047000010B501210548FEF701
:1023F00027FB30B101210348FEF720FA01200249F2
:10240000087010BD006400404800002000B585B091
:1024100002217F48FEF714FB002839D002217C48B6
:10242000FEF70CFA6A4600217948FEF72CFC9DF86D
:10243000080000282CD19DF808000028FAD19DF84A
:102440000A000828F6D100981B2822D19DF80C001C
:102450009DF80B1040EA012000B26E4908809DF8FB
:102460000E109DF80D0041EA002000B26A49088074
:102470009DF80F0001069DF8100041EA00419DF80B
:10248000110041EA00209DF81210084363490860DA
:10249000BCE000982B2822D19DF80C009DF80B1071
:1024A00040EA012000B25B4948809DF80E109DF87B
:1024B0000D0041EA002000B2574948809DF80F0006
:1024C00001069DF8100041EA00419DF8110041EA23
:1024D00000209DF8121008435049486096E000988B
:1024E0003B2822D19DF80C009DF80B1040EA0120FA
:1024F00000B2484988809DF80E109DF80D0041EA11
:10250000002000B2444988809DF80F0001069DF824
:10251000100041EA00419DF8110041EA00209DF8B9
:10252000121008433D49886070E000984B2822D182
:102530009DF80C009DF80B1040EA012000B23549CF
:10254000C8809DF80E109DF80D0041EA002000B2F1
:102550003149C8809DF80F0001069DF8100041EA3E
:1025600000419DF8110041EA00209DF81210084337
:102570002A49C8604AE000981F2803D10120284951
:10258000087043E000982F2803D1012024494870A7
:102590003CE000983F2803D101202149887035E0B4
:1025A00000984F2803D101201D49C8702EE00098E3
:1025B0001C2808D19DF80B001A4908709DF80C00E2
:1025C0001949087022E000982C2808D19DF80B00CA
:1025D000144948709DF80C001349487016E00098A3
:1025E0003C2808D19DF80B000E4988709DF80C001E
:1025F0000D4988700AE000984C2807D19DF80B001F
:102600000849C8709DF80C000749C87005B000BDA6
:10261000006400404A000020520000209400002086
:102620005A0000205E0000206200002000BFFEE78C
:102630000EB50AB2ADF806200AB2ADF802200AB211
:10264000ADF804200AB2ADF80020009A0260019AA9
:102650004260029A82600EBD70B589B004460E4693
:102660001546314606A8FFF7E3FF294603A800F008
:1026700013F9BDF91800002803DBBDF90C00002890
:1026800007DABDF9180000284EDABDF90C00002861
:102690004ADABDF81A00BDF80E10084400B2ADF8D1
:1026A0000200BDF91800002802DDBDF9180002E0A3
:1026B000BDF918004042BDF90C10002902DDBDF93A
:1026C0000C1002E0BDF90C104942884202DDBDF950
:1026D000180001E0BDF90C00ADF80000BDF91E00C6
:1026E000002802DDBDF91E0002E0BDF91E004042D7
:1026F000BDF91210002902DDBDF9121002E0BDF98A
:1027000012104942884202DDBDF91E0001E0BDF908
:102710001200ADF80600BDF81C00BDF8101008440A
:1027200000B2ADF8040049E0BDF91A00002802DD4E
:10273000BDF91A0002E0BDF91A004042BDF90E10C1
:10274000002902DDBDF90E1002E0BDF90E1049426C
:10275000884202DDBDF91A0001E0BDF90E00ADF8B6
:102760000200BDF81800BDF80C10084400B2ADF826
:102770000000BDF81E00BDF81210084400B2ADF80C
:102780000600BDF91C00002802DDBDF91C0002E0B6
:10279000BDF91C004042BDF91010002902DDBDF951
:1027A000101002E0BDF910104942884202DDBDF967
:1027B0001C0001E0BDF91000ADF804000098206095
:1027C000019860600298A06009B070BD70B589B0D2
:1027D00004460E461546314606A8FFF729FF29464E
:1027E00003A800F059F8BDF91800002803DBBDF973
:1027F0000C00002807DABDF91800002824DABDF91A
:102800000C00002820DABDF81A00BDF80E100844AC
:1028100000B2ADF80200BDF81800BDF80C10084475
:1028200000B2ADF80000BDF81E00BDF8121008445B
:1028300000B2ADF80600BDF81C00BDF81010084449
:1028400000B2ADF804001FE0BDF81A00BDF80E108C
:10285000084400B2ADF80200BDF81800BDF80C1035
:10286000084400B2ADF80000BDF81E00BDF812101B
:10287000084400B2ADF80600BDF81C00BDF8101009
:10288000084400B2ADF80400009820600198606030
:102890000298A06009B070BD0EB54A4212B2ADF800
:1028A00002200AB2ADF806200AB2ADF800204A4272
:1028B00012B2ADF80420009A0260019A4260029AB6
:1028C00082600EBD0FB4054B10B503A9044A0298EF
:1028D00000F052FB10BC5DF814FB00000932000848
:1028E00080000020490050EAC12018BF04204A0D92
:1028F00018BF40F0010040F2FF72B2EB515F08BF19
:1029000040F00200012808BF052070472DE9F74F6D
:10291000144694B00021C4E902111599079121F0E1
:102920000045C9498D4206DC1599C4E9000117B07C
:102930000020BDE8F08FC549DFF814A3A9423CDDB3
:102940000799C44E0029C44FC44A1599534619DD4E
:10295000FDF7BDFC554506D0C14AC24BFDF7B7FC9B
:10296000C4E900010AE04FF0D352BE4BFDF7AFFCC3
:1029700032463B46FDF7ABFCC4E9000117B001202D
:10298000BDE8F08FFDF702FC554506D0B44AB54BC3
:10299000FDF7FCFBC4E900010AE04FF0D352B14B54
:1029A000FDF7F4FB32463B46FDF7F0FBC4E90001BE
:1029B00017B04FF0FF30BDE8F08FAB49A942159931
:1029C00078DB21F0004183468846A84AA84BFDF7F2
:1029D00084FC0022A74BFDF7D9FBFDF76CFD0990A5
:1029E000FDF785FE06460F469C4A5346FDF775FCEB
:1029F00043465A46FDF76EFC80468A46984A994BF4
:102A000030463946FDF769FC2A0D01250B924246F6
:102A10005346FDF75FFC032DC4E9000139D00B9844
:102A2000C1F30A51401A05EB45111139814230DAE0
:102A30009148C346784400EB0510CDF80CA00C90EB
:102A4000D0E9002330463946FDF747FC02460B46E5
:102A50000491069058460399FDF739FC80468A4652
:102A600002460B4658460399FDF731FC049B069A33
:102A7000FDF72DFC83460C9803913946D0E90223DB
:102A80003046FDF72AFC5A46039BFDF720FC6D1CDF
:102A9000BDE707980028A2BF099817B0BDE8F08FDE
:102AA000616881F000416160099817B04042BDE85B
:102AB000F08FFFE784461598C1F31301C0F30A5065
:102AC000A0F2F5304FEA601800F01F06C6F12000B2
:102AD000139000200690079041F4801E05206D465B
:102AE00076B1664A08EB00017A4452F8213002EBD5
:102AF0008101B3404A68139922FA01F1194305E0B4
:102B00005F4908EB0002794451F82210A1FB0E271F
:102B1000A1FB0C131A449A4234BF0123002303EB98
:102B2000070A05EB8003D3E901B70F448F4234BF96
:102B30000121002193448B4411B1934502D903E054
:102B4000934501D2012100E00021C3E901B75144BE
:102B500045F82010011EA0F10100C1DC0298059F7C
:102B600000F10050800F12900298DDE903568000BA
:102B7000FDF7BDFD834628460D91FDF78FFC6FF0F4
:102B80001D02FDF79DFDCDE90E013046FDF786FCE7
:102B90006FF03D02FDF794FD80468A463846FDF70A
:102BA0007DFC6FF05D02FDF78BFD07464246534604
:102BB0001191FDF7EBFADDE90E23FDF7E7FA5A462E
:102BC0000D9BFDF7E3FA00250E465A4628460D9B5D
:102BD000FDF77DFBDDE90E23FDF779FB4246534609
:102BE000FDF775FB3A46119BFDF774FBDFF898A0E3
:102BF000244A5346FDF771FB07468846234A244B77
:102C000031462846FDF769FB3A464346FDF7BEFAD2
:102C1000074688464FF0A842534631462846FDF7FE
:102C20005CFB3A464346FDF7B1FA159A12F0004FA5
:102C300004D0129A81F0004152421292C4E900017C
:102C4000129817B0BDE8F08FFB21E93F7CD9024014
:102C5000FB21F93F7370032E8A19A33B00004054F7
:102C60003163621A61B4D03DFB21394183C8C96D1B
:102C7000305FE43F0000E03F380E0000B40D00007C
:102C8000960D0000182D4454FB21F93D3326A61162
:102C9000460B113C2DE9FF4D21F0004807460C463C
:102CA000B8F1795F08DAFDF706FC002801BF0020C3
:102CB000324904B0BDE8F08D3A4623461046194625
:102CC000FDF70BFB054602462D480E460B46062136
:102CD000784400F05DF82A463346FDF7FEFADDE958
:102CE000022382468B4638462146FDF7F6FA044613
:102CF0000F4652465B4628463146FDF7EEFA22461D
:102D00003B46FDF7E4FA07468A464FF0FF32284675
:102D10003146FDF7D5FC1B4A90450ADA3A46534640
:102D2000FDF7D5FA04B00022BDE8F04D134BFDF7D6
:102D3000D1BA154A4245A8BFA8F500154FF00004C6
:102D4000B8BF124D22462B46FDF7C1FA064688460B
:102D500022462B4600200949FDF7B9FA04460D46E4
:102D60003A46534630464146FDF7B1FA04B0224692
:102D70002B46BDE8F04DFDF7ADBA00000000F03F76
:102D80006C0B00003333D33F0000E93F0000D23F1B
:102D90002DE9F0414F1E00EBC7010446D1E90001C7
:102DA00015461E4637F006020DD02A463346FDF77B
:102DB00094FA7F1E04EBC703D3E90023FDF7E6F97D
:102DC00037F00602F1D1022F25D0042F13D0062FA1
:102DD00018BFBDE8F0812A463346FDF77EFAD4E9F4
:102DE0000A23FDF7D3F92A463346FDF776FAD4E9EC
:102DF0000823FDF7CBF92A463346FDF76EFAD4E9EE
:102E00000623FDF7C3F92A463346FDF766FAD4E9EF
:102E10000423FDF7BBF92A463346FDF75EFAD4E9F1
:102E20000223FDF7B3F92A463346FDF756FAD4E9F3
:102E30000023BDE8F041FDF7A9B900002DE9FF4DE1
:102E4000054621F0004084B00C46B0F1795F0BDA02
:102E50002846FFF747FD042808BF00F06FF8284612
:102E600008B02146BDE8F08D2A460B461046FDF716
:102E700034FA06460F462A462346FDF72EFA8046C8
:102E800026488A4632463B4605217844FFF780FFB4
:102E900083461098029160B3214A224B4046514626
:102EA000FDF71BFACDE900015A4640465146029B08
:102EB000FDF713FA82468846DDE906014FF0FF323E
:102EC000FDF7FEFB52464346FDF701FA32463B460C
:102ED000FDF703FADDE90623FDF7F9F9DDE9002343
:102EE000FDF7F5F908B02A462346BDE8F04DFDF799
:102EF000F1B90B465A4630463946FDF7EEF9084A15
:102F0000084BFDF743F942465346FDF7E6F908B092
:102F10002A462346BDE8F04DFDF738B9AA0A00005D
:102F2000495555555555C5BF0122FDF7C9BB00226E
:102F3000134610461146FDF742BA0000024A00202F
:102F40001107FDF7BDBB000001FDFFFF02E008C84F
:102F5000121F08C1002AFAD170477047002001E013
:102F600001C1121F002AFBD170470000014908600F
:102F700070470000840000202DE9FF4F89B09B4678
:102F80000446002506E025280BD05A460B999047A9
:102F9000641C6D1C20780028F5D10DB02846BDE8D2
:102FA000F08F0027B8460122474900E0074314F894
:102FB000013F203B02FA03F00842F7D120782E2887
:102FC00019D114F8010F47F004072A280ED06FF02A
:102FD0002F022078A0F1300109290CD808EB8801D4
:102FE00002EB410100EB0108641CF2E70A98641C43
:102FF00050F8048B0A9020780028CED0642808D09E
:10300000692806D075281ED05A460B9990476D1C2A
:1030100058E00A994FF00A0901C90A91002802DA1A
:1030200040422D2102E0390504D52B218DF82010D6
:10303000012103E0F90704D02021F7E78A4608AE12
:103040000DE00021FAE70A994FF00A0901C90A9137
:10305000F7E74946FDF77EFA303106F8011D0028F2
:10306000F7D1ADEB060000F12009780701D44FF04D
:103070000108C84502DDA8EB090000E000208046F9
:10308000002706E008A85A46C05D0B9990476D1CC2
:103090007F1C5745F6DB04E030205A460B999047D9
:1030A0006D1CB8F10001A8F10108F5DC05E016F887
:1030B000010B5A460B9990476D1CB9F10001A9F11B
:1030C0000109F4DC641C65E70928010000B5244B04
:1030D00021F0004287B09A42DCBF0022134629DD6E
:1030E000204B9A4208D140B94FF00100FFF73EFF54
:1030F000FFF71DFF07B000BD03DBFFF715FF07B0AB
:1031000000BD02AAFFF702FC10F0030104BF0DF19D
:10311000080C9CE80F000DD0012001290ED00229D7
:1031200014D00DF1080C00909CE80F00FFF786FE0C
:1031300007B000BDFFF7AEFD07B000BD0DF1080CF4
:1031400000909CE80F00FFF779FE05E00DF1080CF8
:103150009CE80F00FFF79EFD07B081F0004100BD25
:10316000FB21E93F0000F07F70B5044624B92146F9
:1031700008A0FFF7A7FB70BD002507E042F63C0062
:1031800000BF011EA0F10100FBD16D1CA542F5D3CB
:1031900000BFF0E744656C6179204572726F722060
:1031A0000D0A2044656C617954696D65206973204E
:1031B0002564200D0A00000070B5044624B921469C
:1031C00008A0FFF77FFB70BD002506E0092000BFC7
:1031D000011EA0F10100FBD16D1CA542F6D300BF7A
:1031E000F1E7000044656C6179204572726F7220CE
:1031F0000D0A2044656C617954696D6520697320FE
:103200002564200D0A00000070B504460D4600BF7D
:1032100040210948FFF715F80128F9D1E1B2064825
:10322000FFF7DDF800BF40210348FFF70AF8012847
:10323000F9D1204670BD0000003801408AB0FEF789
:1032400005FA4FF4A060FEF7C5F9FDF791FF4FF4C2
:103250000051FA48FEF7E5F84FF4E130FEF784FF3D
:1032600000F060FA41F28830FFF77EFFFEF7FCF8CD
:103270004B20FEF72BFE0520FEF75AFEFDF74AFA1B
:103280004FF4FA70FFF770FF00210846FDF718FEB3
:103290004FF4FA70FFF768FF0023642201211846FB
:1032A000FDF76AFDC820FFF787FF00236422022193
:1032B0001846FDF761FDC820FFF77EFF002364225A
:1032C00003211846FDF758FDC820FFF775FF0023BE
:1032D000642204211846FDF74FFD03220021084611
:1032E000FDF79EFD4FF4FA70FFF73EFF0120D44931
:1032F00008700FE20620FEF797F8002878D1D14831
:103300000078002874D000221346CF4903C9FDF786
:1033100009F902D2CC4903C903E0CB4903C981F0C2
:10332000004104460022C94BFDF7E4F822D81021E1
:10333000C748FEF76BF858B90120FFF715FF1021B9
:10334000C348FEF763F818B90020C249C24A03C255
:103350002021BF48FEF75AF860B90120FFF704FFAB
:103360002021BB48FEF752F820B90021BB48BA4AD9
:10337000C2E9001000221346B34903C9FDF7D2F891
:1033800002D2B14903C903E0AF4903C981F000414A
:1033900004460022B24BFDF7C5F827D84021AC48BF
:1033A000FEF734F828B18021A948FEF72FF800284D
:1033B0001CD10120FFF7D8FE4021A548FEF726F8D2
:1033C00028B98021A248FEF721F800280ED040211C
:1033D0009F48FEF71BF828B180219D48FEF716F89C
:1033E0000028E5D100219C4A1160516018E1FFE7F7
:1033F000944800780028F9D09A48B0F90A20B0F92A
:10340000081007A8FFF7E2F99648B0F9081004A8D9
:10341000FFF70EF99348B0F90A1001A8FFF73CFA3C
:103420004FF480718548FDF7F1FF002866D14FF415
:1034300000418248FDF7EAFF00285FD18948B0F9D2
:10344000080000280BDA8748B0F90A00002806DADD
:10345000002084494880C88088800880AAE081488C
:10346000B0F90800002823DABDF81E00BDF81210DC
:10347000401A00B27B494880BDF82200BDF8161002
:10348000401A00B27749C880BDF82000BDF814107A
:10349000401A00B273498880BDF81C00BDF81010B6
:1034A000401A00B26F49088000206F49088081E00F
:1034B0006C48B0F90A0000287CDABDF81E00BDF89F
:1034C0000610401A00B267494880BDF82200BDF8D6
:1034D0000A10401A00B26349C880BDF82000BDF848
:1034E0000810401A00B25F498880BDF81C00BDF882
:1034F0000410401A00B25B4908805BE04FF4807111
:103500004E48FDF783FF50BB5648B0F9080000282D
:1035100050DABDF81E00BDF81210401A00B2514931
:103520004880BDF82200BDF81610401A00B24D497F
:10353000C880BDF82000BDF81410401A00B24949F7
:103540008880BDF81C00BDF81010401A00B2454933
:103550000880002044490880444908802AE04FF44C
:1035600000413648FDF752FF20BB3E48B0F9080045
:1035700000281FDDBDF81E00BDF81210401A00B271
:1035800038494880BDF82200BDF81610401A00B234
:103590003449C880BDF82000BDF81410401A00B2AC
:1035A00030498880BDF81C00BDF81010401A00B2E8
:1035B0002C4908802B48B0F902302D48B0F9002082
:1035C00001210020FDF7CCFC2648C088404203B210
:1035D0002748B0F9002002210020FDF7C1FC214856
:1035E0008088404203B22248B0F900200321002025
:1035F000FDF7B6FC1B48B0F900301D48B0F90020BB
:1036000004210020FDF7ACFC0021134A1160516039
:103610000D4A116051600020164A1060506000BFD2
:1036200015480068012832DC0020FDF7FDFE38BB9C
:103630004FF480411148FDF7F4FE2DE000200140D9
:10364000020000206A00002010000020000014404A
:1036500000080140008056C008000020008056404D
:1036600000405540A4000020380000203C0000200D
:10367000000000203000002020000020000C01404D
:10368000FFE74FF480412448FDF7C9FE04E04FF402
:1036900080412148FDF7C5FE2048006801280FDC65
:1036A0000120FDF7C1FE28B94FF400511A48FDF77B
:1036B000B8FE0AE04FF400511748FDF7B0FE04E0F1
:1036C0004FF400511448FDF7ACFE0420FDF7ACFEAA
:1036D00058B91348006840F63C71884205DB4FF446
:1036E00000410D48FDF79DFE14E00420FDF79CFE0F
:1036F00080B10B48006840F63C7188420ADB0748FD
:10370000006840F6E441884204DB4FF4004102487F
:10371000FDF785FEEEE50000000C014020000020D2
:103720001C00002000B585B0012144F21400FDF713
:103730007DFF4FF40070ADF8100018208DF81300D5
:1037400003208DF8120004A91348FDF78BFD4FF4F8
:103750008060ADF8100004208DF8130004A90E4815
:10376000FDF780FD4FF4E13000900020ADF804003B
:10377000ADF80600ADF80800ADF80C000C20ADF86F
:103780000A0069460548FEF7B9FD01210348FEF726
:103790004CFD05B000BD00000008014000380140AC
:1037A00000B5254B21F0004287B09A4203DC00228D
:1037B000134600922BE0214B9A4208D140B94FF0BA
:1037C0000100FFF7D3FBFFF7B2FB07B000BD03DB3F
:1037D000FFF7AAFB07B000BD02AAFFF797F810F0A9
:1037E00003014FF001000DD0012914D002291AD095
:1037F0000DF1080C9CE80F00FFF74CFA07B081F0C0
:10380000004100BD0DF1080C00909CE80F00FFF78F
:1038100015FB07B000BD0DF1080C9CE80F00FFF789
:1038200039FA07B000BD0DF1080C00909CE80F00BC
:10383000FFF704FBE2E70000FB21E93F0000F07F17
:103840004C5555555555A53F7751C1166CC156BFBE
:103850009015CB19A001FA3EAD529C804F7E92BECE
:10386000C4B1B4BD9EEE213ED43888BEE9FAA8BDED
:1038700000004054FB21F93F3163621A61B4D03D2E
:103880000000601A61B4D03D7370032E8A19A33B07
:103890000000002E8A19A33BC14920259A837B3959
:1038A00000000000000000006E83F9A22915444EBC
:1038B000D15727FCC0DD34F5999562DB4190433C3C
:1038C000AB6351FE61C5BBDE3A6E24B7E0D24D4218
:1038D000EA2E49061C92D1091CEB1DFE3EA729B118
:1038E000F53582E88444BB2E26709CE9417E5FB4A6
:1038F00039D69139F43953838B5F849C3B28F9BDC9
:10390000FF97F81F0F9805DE8B112FEF1F6D0A5AD6
:10391000CF7E366DB709CB27663F464F2DEA5F9EB7
:10392000C7BA27757BF1E5EBF739073DEA92528A72
:10393000B15FFB6B085D8D1FA6F810111111813F5F
:10394000D561C119A0012ABF7DFEB157E31DC73E55
:10395000EB9C2B8AE6E55ABE7CD5CF5A3AD9E53D99
:103960008039000800000020880000004C2F00086B
:10397000083A000888000020380400005C2F000886
:10398000881300000000000000000000000000009C
:103990000000000000000000000000000000000027
:1039A0000000000000000000000000000000000017
:1039B00000000000000000000000000000001900EE
:1039C00004000000000000000000000000000000F3
:1039D00000000000000000000000000000000000E7
:1039E00000000000000000000000000000000001D6
:1039F0000203040102030406070809020406080082
:083A00000000000000000000BE
:0400000508000131BD
:00000001FF
